{
  "contractName": "Eclipseum",
  "abi": [
    {
      "inputs": [
        {
          "internalType": "address",
          "name": "_daiAddress",
          "type": "address"
        }
      ],
      "payable": true,
      "stateMutability": "payable",
      "type": "constructor"
    },
    {
      "anonymous": false,
      "inputs": [
        {
          "indexed": true,
          "internalType": "address",
          "name": "owner",
          "type": "address"
        },
        {
          "indexed": true,
          "internalType": "address",
          "name": "spender",
          "type": "address"
        },
        {
          "indexed": false,
          "internalType": "uint256",
          "name": "value",
          "type": "uint256"
        }
      ],
      "name": "Approval",
      "type": "event"
    },
    {
      "anonymous": false,
      "inputs": [
        {
          "indexed": false,
          "internalType": "address",
          "name": "userAddress",
          "type": "address"
        },
        {
          "indexed": false,
          "internalType": "uint256",
          "name": "daiReceived",
          "type": "uint256"
        }
      ],
      "name": "LogBuyDai",
      "type": "event"
    },
    {
      "anonymous": false,
      "inputs": [
        {
          "indexed": false,
          "internalType": "address",
          "name": "userAddress",
          "type": "address"
        },
        {
          "indexed": false,
          "internalType": "uint256",
          "name": "eclReceived",
          "type": "uint256"
        }
      ],
      "name": "LogBuyEcl",
      "type": "event"
    },
    {
      "anonymous": false,
      "inputs": [
        {
          "indexed": false,
          "internalType": "address",
          "name": "userAddress",
          "type": "address"
        },
        {
          "indexed": false,
          "internalType": "uint256",
          "name": "ethReceived",
          "type": "uint256"
        }
      ],
      "name": "LogSellDai",
      "type": "event"
    },
    {
      "anonymous": false,
      "inputs": [
        {
          "indexed": false,
          "internalType": "address",
          "name": "userAddress",
          "type": "address"
        },
        {
          "indexed": false,
          "internalType": "uint256",
          "name": "ethReceived",
          "type": "uint256"
        }
      ],
      "name": "LogSellEcl",
      "type": "event"
    },
    {
      "anonymous": false,
      "inputs": [
        {
          "indexed": false,
          "internalType": "address",
          "name": "userAddress",
          "type": "address"
        },
        {
          "indexed": false,
          "internalType": "uint256",
          "name": "ethReceived",
          "type": "uint256"
        },
        {
          "indexed": false,
          "internalType": "uint256",
          "name": "daiReceived",
          "type": "uint256"
        }
      ],
      "name": "LogSoftSellEcl",
      "type": "event"
    },
    {
      "anonymous": false,
      "inputs": [
        {
          "indexed": true,
          "internalType": "address",
          "name": "from",
          "type": "address"
        },
        {
          "indexed": true,
          "internalType": "address",
          "name": "to",
          "type": "address"
        },
        {
          "indexed": false,
          "internalType": "uint256",
          "name": "value",
          "type": "uint256"
        }
      ],
      "name": "Transfer",
      "type": "event"
    },
    {
      "constant": true,
      "inputs": [
        {
          "internalType": "address",
          "name": "owner",
          "type": "address"
        },
        {
          "internalType": "address",
          "name": "spender",
          "type": "address"
        }
      ],
      "name": "allowance",
      "outputs": [
        {
          "internalType": "uint256",
          "name": "",
          "type": "uint256"
        }
      ],
      "payable": false,
      "stateMutability": "view",
      "type": "function"
    },
    {
      "constant": false,
      "inputs": [
        {
          "internalType": "address",
          "name": "spender",
          "type": "address"
        },
        {
          "internalType": "uint256",
          "name": "amount",
          "type": "uint256"
        }
      ],
      "name": "approve",
      "outputs": [
        {
          "internalType": "bool",
          "name": "",
          "type": "bool"
        }
      ],
      "payable": false,
      "stateMutability": "nonpayable",
      "type": "function"
    },
    {
      "constant": true,
      "inputs": [
        {
          "internalType": "address",
          "name": "account",
          "type": "address"
        }
      ],
      "name": "balanceOf",
      "outputs": [
        {
          "internalType": "uint256",
          "name": "",
          "type": "uint256"
        }
      ],
      "payable": false,
      "stateMutability": "view",
      "type": "function"
    },
    {
      "constant": true,
      "inputs": [],
      "name": "daiInterface",
      "outputs": [
        {
          "internalType": "contract IERC20",
          "name": "",
          "type": "address"
        }
      ],
      "payable": false,
      "stateMutability": "view",
      "type": "function"
    },
    {
      "constant": true,
      "inputs": [],
      "name": "decimals",
      "outputs": [
        {
          "internalType": "uint8",
          "name": "",
          "type": "uint8"
        }
      ],
      "payable": false,
      "stateMutability": "view",
      "type": "function"
    },
    {
      "constant": false,
      "inputs": [
        {
          "internalType": "address",
          "name": "spender",
          "type": "address"
        },
        {
          "internalType": "uint256",
          "name": "subtractedValue",
          "type": "uint256"
        }
      ],
      "name": "decreaseAllowance",
      "outputs": [
        {
          "internalType": "bool",
          "name": "",
          "type": "bool"
        }
      ],
      "payable": false,
      "stateMutability": "nonpayable",
      "type": "function"
    },
    {
      "constant": true,
      "inputs": [],
      "name": "ethBalanceOfEclPool",
      "outputs": [
        {
          "internalType": "uint256",
          "name": "",
          "type": "uint256"
        }
      ],
      "payable": false,
      "stateMutability": "view",
      "type": "function"
    },
    {
      "constant": true,
      "inputs": [],
      "name": "ethVolumeOfDaiPool",
      "outputs": [
        {
          "internalType": "uint256",
          "name": "",
          "type": "uint256"
        }
      ],
      "payable": false,
      "stateMutability": "view",
      "type": "function"
    },
    {
      "constant": true,
      "inputs": [],
      "name": "ethVolumeOfEclPool",
      "outputs": [
        {
          "internalType": "uint256",
          "name": "",
          "type": "uint256"
        }
      ],
      "payable": false,
      "stateMutability": "view",
      "type": "function"
    },
    {
      "constant": false,
      "inputs": [
        {
          "internalType": "address",
          "name": "spender",
          "type": "address"
        },
        {
          "internalType": "uint256",
          "name": "addedValue",
          "type": "uint256"
        }
      ],
      "name": "increaseAllowance",
      "outputs": [
        {
          "internalType": "bool",
          "name": "",
          "type": "bool"
        }
      ],
      "payable": false,
      "stateMutability": "nonpayable",
      "type": "function"
    },
    {
      "constant": true,
      "inputs": [],
      "name": "launched",
      "outputs": [
        {
          "internalType": "bool",
          "name": "",
          "type": "bool"
        }
      ],
      "payable": false,
      "stateMutability": "view",
      "type": "function"
    },
    {
      "constant": true,
      "inputs": [],
      "name": "name",
      "outputs": [
        {
          "internalType": "string",
          "name": "",
          "type": "string"
        }
      ],
      "payable": false,
      "stateMutability": "view",
      "type": "function"
    },
    {
      "constant": true,
      "inputs": [],
      "name": "symbol",
      "outputs": [
        {
          "internalType": "string",
          "name": "",
          "type": "string"
        }
      ],
      "payable": false,
      "stateMutability": "view",
      "type": "function"
    },
    {
      "constant": true,
      "inputs": [],
      "name": "totalSupply",
      "outputs": [
        {
          "internalType": "uint256",
          "name": "",
          "type": "uint256"
        }
      ],
      "payable": false,
      "stateMutability": "view",
      "type": "function"
    },
    {
      "constant": false,
      "inputs": [
        {
          "internalType": "address",
          "name": "recipient",
          "type": "address"
        },
        {
          "internalType": "uint256",
          "name": "amount",
          "type": "uint256"
        }
      ],
      "name": "transfer",
      "outputs": [
        {
          "internalType": "bool",
          "name": "",
          "type": "bool"
        }
      ],
      "payable": false,
      "stateMutability": "nonpayable",
      "type": "function"
    },
    {
      "constant": false,
      "inputs": [
        {
          "internalType": "address",
          "name": "sender",
          "type": "address"
        },
        {
          "internalType": "address",
          "name": "recipient",
          "type": "address"
        },
        {
          "internalType": "uint256",
          "name": "amount",
          "type": "uint256"
        }
      ],
      "name": "transferFrom",
      "outputs": [
        {
          "internalType": "bool",
          "name": "",
          "type": "bool"
        }
      ],
      "payable": false,
      "stateMutability": "nonpayable",
      "type": "function"
    },
    {
      "constant": false,
      "inputs": [],
      "name": "launch",
      "outputs": [],
      "payable": false,
      "stateMutability": "nonpayable",
      "type": "function"
    },
    {
      "constant": false,
      "inputs": [
        {
          "internalType": "uint256",
          "name": "_minEclToReceive",
          "type": "uint256"
        },
        {
          "internalType": "uint256",
          "name": "_deadline",
          "type": "uint256"
        }
      ],
      "name": "buyEcl",
      "outputs": [],
      "payable": true,
      "stateMutability": "payable",
      "type": "function"
    },
    {
      "constant": false,
      "inputs": [
        {
          "internalType": "uint256",
          "name": "_eclSold",
          "type": "uint256"
        },
        {
          "internalType": "uint256",
          "name": "_minEthToReceive",
          "type": "uint256"
        },
        {
          "internalType": "uint256",
          "name": "_deadline",
          "type": "uint256"
        }
      ],
      "name": "sellEcl",
      "outputs": [],
      "payable": false,
      "stateMutability": "nonpayable",
      "type": "function"
    },
    {
      "constant": false,
      "inputs": [
        {
          "internalType": "uint256",
          "name": "_eclSold",
          "type": "uint256"
        },
        {
          "internalType": "uint256",
          "name": "_minEthToReceive",
          "type": "uint256"
        },
        {
          "internalType": "uint256",
          "name": "_minDaiToReceive",
          "type": "uint256"
        },
        {
          "internalType": "uint256",
          "name": "_deadline",
          "type": "uint256"
        }
      ],
      "name": "softSellEcl",
      "outputs": [],
      "payable": false,
      "stateMutability": "nonpayable",
      "type": "function"
    },
    {
      "constant": false,
      "inputs": [
        {
          "internalType": "uint256",
          "name": "_minDaiToReceive",
          "type": "uint256"
        },
        {
          "internalType": "uint256",
          "name": "_deadline",
          "type": "uint256"
        }
      ],
      "name": "buyDai",
      "outputs": [],
      "payable": true,
      "stateMutability": "payable",
      "type": "function"
    },
    {
      "constant": false,
      "inputs": [
        {
          "internalType": "uint256",
          "name": "_daiSold",
          "type": "uint256"
        },
        {
          "internalType": "uint256",
          "name": "_minEthToReceive",
          "type": "uint256"
        },
        {
          "internalType": "uint256",
          "name": "_deadline",
          "type": "uint256"
        }
      ],
      "name": "sellDai",
      "outputs": [],
      "payable": false,
      "stateMutability": "nonpayable",
      "type": "function"
    },
    {
      "constant": true,
      "inputs": [
        {
          "internalType": "uint256",
          "name": "_aBalance",
          "type": "uint256"
        },
        {
          "internalType": "uint256",
          "name": "_bBalance",
          "type": "uint256"
        },
        {
          "internalType": "uint256",
          "name": "_aSent",
          "type": "uint256"
        }
      ],
      "name": "calcBOut",
      "outputs": [
        {
          "internalType": "uint256",
          "name": "",
          "type": "uint256"
        }
      ],
      "payable": false,
      "stateMutability": "pure",
      "type": "function"
    },
    {
      "constant": true,
      "inputs": [
        {
          "internalType": "uint256",
          "name": "_ethBalanceOfEclPool",
          "type": "uint256"
        },
        {
          "internalType": "uint256",
          "name": "_ethBalanceOfDaiPool",
          "type": "uint256"
        },
        {
          "internalType": "uint256",
          "name": "_ethSent",
          "type": "uint256"
        }
      ],
      "name": "calcEthTransferForBuyEcl",
      "outputs": [
        {
          "internalType": "uint256",
          "name": "",
          "type": "uint256"
        }
      ],
      "payable": false,
      "stateMutability": "pure",
      "type": "function"
    },
    {
      "constant": true,
      "inputs": [
        {
          "internalType": "uint256",
          "name": "_amountBeforeFee",
          "type": "uint256"
        }
      ],
      "name": "applyTransactionFee",
      "outputs": [
        {
          "internalType": "uint256",
          "name": "",
          "type": "uint256"
        }
      ],
      "payable": false,
      "stateMutability": "pure",
      "type": "function"
    },
    {
      "constant": true,
      "inputs": [],
      "name": "eclBalanceOfEclPool",
      "outputs": [
        {
          "internalType": "uint256",
          "name": "",
          "type": "uint256"
        }
      ],
      "payable": false,
      "stateMutability": "view",
      "type": "function"
    },
    {
      "constant": true,
      "inputs": [],
      "name": "ethBalanceOfDaiPool",
      "outputs": [
        {
          "internalType": "uint256",
          "name": "",
          "type": "uint256"
        }
      ],
      "payable": false,
      "stateMutability": "view",
      "type": "function"
    },
    {
      "constant": true,
      "inputs": [],
      "name": "daiBalanceOfDaiPool",
      "outputs": [
        {
          "internalType": "uint256",
          "name": "",
          "type": "uint256"
        }
      ],
      "payable": false,
      "stateMutability": "view",
      "type": "function"
    },
    {
      "constant": true,
      "inputs": [],
      "name": "circulatingSupply",
      "outputs": [
        {
          "internalType": "uint256",
          "name": "",
          "type": "uint256"
        }
      ],
      "payable": false,
      "stateMutability": "view",
      "type": "function"
    }
  ],
  "bytecode": "0x60806040526040516200490038038062004900833981810160405260208110156200002957600080fd5b81019080805190602001909291905050506040518060400160405280600981526020017f45636c69707365756d00000000000000000000000000000000000000000000008152506040518060400160405280600381526020017f45434c000000000000000000000000000000000000000000000000000000000081525060128260039080519060200190620000c09291906200042d565b508160049080519060200190620000d99291906200042d565b5080600560006101000a81548160ff021916908360ff1602179055505050506001600560016101000a81548160ff0219169083151502179055506702c68af0bb14000034101562000176576040517f08c379a000000000000000000000000000000000000000000000000000000000815260040180806020018281038252602e815260200180620048d2602e913960400191505060405180910390fd5b620001923069152d02c7e14af6800000620001da60201b60201c565b80600560026101000a81548173ffffffffffffffffffffffffffffffffffffffff021916908373ffffffffffffffffffffffffffffffffffffffff16021790555050620004dc565b600073ffffffffffffffffffffffffffffffffffffffff168273ffffffffffffffffffffffffffffffffffffffff1614156200027e576040517f08c379a000000000000000000000000000000000000000000000000000000000815260040180806020018281038252601f8152602001807f45524332303a206d696e7420746f20746865207a65726f20616464726573730081525060200191505060405180910390fd5b6200029a81600254620003a460201b620033101790919060201c565b600281905550620002f8816000808573ffffffffffffffffffffffffffffffffffffffff1673ffffffffffffffffffffffffffffffffffffffff16815260200190815260200160002054620003a460201b620033101790919060201c565b6000808473ffffffffffffffffffffffffffffffffffffffff1673ffffffffffffffffffffffffffffffffffffffff168152602001908152602001600020819055508173ffffffffffffffffffffffffffffffffffffffff16600073ffffffffffffffffffffffffffffffffffffffff167fddf252ad1be2c89b69c2b068fc378daa952ba7f163c4a11628f55a4df523b3ef836040518082815260200191505060405180910390a35050565b60008082840190508381101562000423576040517f08c379a000000000000000000000000000000000000000000000000000000000815260040180806020018281038252601b8152602001807f536166654d6174683a206164646974696f6e206f766572666c6f77000000000081525060200191505060405180910390fd5b8091505092915050565b828054600181600116156101000203166002900490600052602060002090601f016020900481019282601f106200047057805160ff1916838001178555620004a1565b82800160010185558215620004a1579182015b82811115620004a057825182559160200191906001019062000483565b5b509050620004b09190620004b4565b5090565b620004d991905b80821115620004d5576000816000905550600101620004bb565b5090565b90565b6143e680620004ec6000396000f3fe6080604052600436106101c25760003560e01c806371a2bf1f116100f7578063a72a9b8211610095578063dd62ed3e11610064578063dd62ed3e1461097a578063de52b28e146109ff578063e0d33fc114610a58578063efbf2d5a14610a83576101c2565b8063a72a9b8214610855578063a9059cbb146108a4578063b2e7b68614610917578063b7fdddbd14610942576101c2565b80638d16fd83116100d15780638d16fd83146106d85780639358928b1461072757806395d89b4114610752578063a457c2d7146107e2576101c2565b806371a2bf1f146106275780638091f3bf1461067e5780638994990d146106ad576101c2565b80632d56a4da116101645780635da271c51161013e5780635da271c5146104fc5780635ec5b53f1461052757806370a082311461055f57806370c4752a146105c4576101c2565b80632d56a4da1461042d578063313ce567146104585780633950935114610489576101c2565b80630c8fb8ee116101a05780630c8fb8ee146102e157806315506ea41461034457806318160ddd1461036f57806323b872dd1461039a576101c2565b806301339c21146101c757806306fdde03146101de578063095ea7b31461026e575b600080fd5b3480156101d357600080fd5b506101dc610ad2565b005b3480156101ea57600080fd5b506101f3610cd1565b6040518080602001828103825283818151815260200191508051906020019080838360005b83811015610233578082015181840152602081019050610218565b50505050905090810190601f1680156102605780820380516001836020036101000a031916815260200191505b509250505060405180910390f35b34801561027a57600080fd5b506102c76004803603604081101561029157600080fd5b81019080803573ffffffffffffffffffffffffffffffffffffffff16906020019092919080359060200190929190505050610d73565b604051808215151515815260200191505060405180910390f35b3480156102ed57600080fd5b5061032e6004803603606081101561030457600080fd5b81019080803590602001909291908035906020019092919080359060200190929190505050610d91565b6040518082815260200191505060405180910390f35b34801561035057600080fd5b50610359610e12565b6040518082815260200191505060405180910390f35b34801561037b57600080fd5b50610384610e87565b6040518082815260200191505060405180910390f35b3480156103a657600080fd5b50610413600480360360608110156103bd57600080fd5b81019080803573ffffffffffffffffffffffffffffffffffffffff169060200190929190803573ffffffffffffffffffffffffffffffffffffffff16906020019092919080359060200190929190505050610e91565b604051808215151515815260200191505060405180910390f35b34801561043957600080fd5b50610442610f6a565b6040518082815260200191505060405180910390f35b34801561046457600080fd5b5061046d6110b0565b604051808260ff1660ff16815260200191505060405180910390f35b34801561049557600080fd5b506104e2600480360360408110156104ac57600080fd5b81019080803573ffffffffffffffffffffffffffffffffffffffff169060200190929190803590602001909291905050506110c7565b604051808215151515815260200191505060405180910390f35b34801561050857600080fd5b5061051161117a565b6040518082815260200191505060405180910390f35b61055d6004803603604081101561053d57600080fd5b810190808035906020019092919080359060200190929190505050611212565b005b34801561056b57600080fd5b506105ae6004803603602081101561058257600080fd5b81019080803573ffffffffffffffffffffffffffffffffffffffff169060200190929190505050611651565b6040518082815260200191505060405180910390f35b3480156105d057600080fd5b50610611600480360360608110156105e757600080fd5b81019080803590602001909291908035906020019092919080359060200190929190505050611699565b6040518082815260200191505060405180910390f35b34801561063357600080fd5b5061063c61178f565b604051808273ffffffffffffffffffffffffffffffffffffffff1673ffffffffffffffffffffffffffffffffffffffff16815260200191505060405180910390f35b34801561068a57600080fd5b506106936117b5565b604051808215151515815260200191505060405180910390f35b3480156106b957600080fd5b506106c26117c8565b6040518082815260200191505060405180910390f35b3480156106e457600080fd5b50610725600480360360608110156106fb57600080fd5b810190808035906020019092919080359060200190929190803590602001909291905050506117ce565b005b34801561073357600080fd5b5061073c611faf565b6040518082815260200191505060405180910390f35b34801561075e57600080fd5b5061076761203c565b6040518080602001828103825283818151815260200191508051906020019080838360005b838110156107a757808201518184015260208101905061078c565b50505050905090810190601f1680156107d45780820380516001836020036101000a031916815260200191505b509250505060405180910390f35b3480156107ee57600080fd5b5061083b6004803603604081101561080557600080fd5b81019080803573ffffffffffffffffffffffffffffffffffffffff169060200190929190803590602001909291905050506120de565b604051808215151515815260200191505060405180910390f35b34801561086157600080fd5b506108a26004803603606081101561087857600080fd5b810190808035906020019092919080359060200190929190803590602001909291905050506121ab565b005b3480156108b057600080fd5b506108fd600480360360408110156108c757600080fd5b81019080803573ffffffffffffffffffffffffffffffffffffffff16906020019092919080359060200190929190505050612617565b604051808215151515815260200191505060405180910390f35b34801561092357600080fd5b5061092c612635565b6040518082815260200191505060405180910390f35b6109786004803603604081101561095857600080fd5b81019080803590602001909291908035906020019092919050505061263b565b005b34801561098657600080fd5b506109e96004803603604081101561099d57600080fd5b81019080803573ffffffffffffffffffffffffffffffffffffffff169060200190929190803573ffffffffffffffffffffffffffffffffffffffff169060200190929190505050612b17565b6040518082815260200191505060405180910390f35b348015610a0b57600080fd5b50610a5660048036036080811015610a2257600080fd5b8101908080359060200190929190803590602001909291908035906020019092919080359060200190929190505050612b9e565b005b348015610a6457600080fd5b50610a6d6132d3565b6040518082815260200191505060405180910390f35b348015610a8f57600080fd5b50610abc60048036036020811015610aa657600080fd5b81019080803590602001909291905050506132d9565b6040518082815260200191505060405180910390f35b600560169054906101000a900460ff1615610b38576040517f08c379a00000000000000000000000000000000000000000000000000000000081526004018080602001828103825260238152602001806142346023913960400191505060405180910390fd5b6000600560029054906101000a900473ffffffffffffffffffffffffffffffffffffffff1673ffffffffffffffffffffffffffffffffffffffff166370a08231306040518263ffffffff1660e01b8152600401808273ffffffffffffffffffffffffffffffffffffffff1673ffffffffffffffffffffffffffffffffffffffff16815260200191505060206040518083038186803b158015610bd957600080fd5b505afa158015610bed573d6000803e3d6000fd5b505050506040513d6020811015610c0357600080fd5b810190808051906020019092919050505011610c6a576040517f08c379a000000000000000000000000000000000000000000000000000000000815260040180806020018281038252603e8152602001806140fa603e913960400191505060405180910390fd5b67016345785d8a00006006819055506001600560166101000a81548160ff0219169083151502179055503073ffffffffffffffffffffffffffffffffffffffff1631610cc8610cb761117a565b60065461331090919063ffffffff16565b14610ccf57fe5b565b606060038054600181600116156101000203166002900480601f016020809104026020016040519081016040528092919081815260200182805460018160011615610100020316600290048015610d695780601f10610d3e57610100808354040283529160200191610d69565b820191906000526020600020905b815481529060010190602001808311610d4c57829003601f168201915b5050505050905090565b6000610d87610d80613398565b84846133a0565b6001905092915050565b600080610da7838661331090919063ffffffff16565b90506000610dd082610dc2878961359790919063ffffffff16565b61361d90919063ffffffff16565b90506000610dfa6001610dec848961366790919063ffffffff16565b61366790919063ffffffff16565b9050858110610e0557fe5b8093505050509392505050565b6000600560169054906101000a900460ff16610e79576040517f08c379a000000000000000000000000000000000000000000000000000000000815260040180806020018281038252603281526020018061407a6032913960400191505060405180910390fd5b610e8230611651565b905090565b6000600254905090565b6000610e9e8484846136b1565b610f5f84610eaa613398565b610f5a8560405180606001604052806028815260200161429960289139600160008b73ffffffffffffffffffffffffffffffffffffffff1673ffffffffffffffffffffffffffffffffffffffff1681526020019081526020016000206000610f10613398565b73ffffffffffffffffffffffffffffffffffffffff1673ffffffffffffffffffffffffffffffffffffffff168152602001908152602001600020546139679092919063ffffffff16565b6133a0565b600190509392505050565b6000600560169054906101000a900460ff16610fd1576040517f08c379a000000000000000000000000000000000000000000000000000000000815260040180806020018281038252603281526020018061407a6032913960400191505060405180910390fd5b600560029054906101000a900473ffffffffffffffffffffffffffffffffffffffff1673ffffffffffffffffffffffffffffffffffffffff166370a08231306040518263ffffffff1660e01b8152600401808273ffffffffffffffffffffffffffffffffffffffff1673ffffffffffffffffffffffffffffffffffffffff16815260200191505060206040518083038186803b15801561107057600080fd5b505afa158015611084573d6000803e3d6000fd5b505050506040513d602081101561109a57600080fd5b8101908080519060200190929190505050905090565b6000600560009054906101000a900460ff16905090565b60006111706110d4613398565b8461116b85600160006110e5613398565b73ffffffffffffffffffffffffffffffffffffffff1673ffffffffffffffffffffffffffffffffffffffff16815260200190815260200160002060008973ffffffffffffffffffffffffffffffffffffffff1673ffffffffffffffffffffffffffffffffffffffff1681526020019081526020016000205461331090919063ffffffff16565b6133a0565b6001905092915050565b6000600560169054906101000a900460ff166111e1576040517f08c379a000000000000000000000000000000000000000000000000000000000815260040180806020018281038252603281526020018061407a6032913960400191505060405180910390fd5b61120d6006543073ffffffffffffffffffffffffffffffffffffffff163161366790919063ffffffff16565b905090565b600560019054906101000a900460ff16611294576040517f08c379a000000000000000000000000000000000000000000000000000000000815260040180806020018281038252601f8152602001807f5265656e7472616e637947756172643a207265656e7472616e742063616c6c0081525060200191505060405180910390fd5b6000600560016101000a81548160ff021916908315150217905550600560169054906101000a900460ff16611314576040517f08c379a000000000000000000000000000000000000000000000000000000000815260040180806020018281038252603281526020018061407a6032913960400191505060405180910390fd5b4281101561136d576040517f08c379a00000000000000000000000000000000000000000000000000000000081526004018080602001828103825260218152602001806142576021913960400191505060405180910390fd5b600034116113c6576040517f08c379a000000000000000000000000000000000000000000000000000000000815260040180806020018281038252602c8152602001806142c1602c913960400191505060405180910390fd5b60006113e2346113d461117a565b61366790919063ffffffff16565b905060006113ee610e12565b905060006114076114026006548434610d91565b6132d9565b905060006114456001611437600661142960078761359790919063ffffffff16565b61361d90919063ffffffff16565b61331090919063ffffffff16565b905060006114566006548634611699565b9050868310156114b1576040517f08c379a0000000000000000000000000000000000000000000000000000000008152600401808060200182810382526036815260200180613ff66036913960400191505060405180910390fd5b6114d8816114ca3460065461331090919063ffffffff16565b61366790919063ffffffff16565b6006819055506114f1818661331090919063ffffffff16565b94506115188261150a858761366790919063ffffffff16565b61331090919063ffffffff16565b9350346007600082825401925050819055507fc0e0f2dde263494a6e3f042ca498cb9e4dc9bc772e3a40cbea098dce6dae46843384604051808373ffffffffffffffffffffffffffffffffffffffff1673ffffffffffffffffffffffffffffffffffffffff1681526020018281526020019250505060405180910390a16115a03033856136b1565b6115aa3083613a27565b3073ffffffffffffffffffffffffffffffffffffffff16316115d78660065461331090919063ffffffff16565b146115de57fe5b6115e6610e12565b84146115ee57fe5b6000600654116115fa57fe5b600061160461117a565b1161160b57fe5b6000611615610e12565b1161161c57fe5b6000611626610f6a565b1161162d57fe5b50505050506001600560016101000a81548160ff0219169083151502179055505050565b60008060008373ffffffffffffffffffffffffffffffffffffffff1673ffffffffffffffffffffffffffffffffffffffff168152602001908152602001600020549050919050565b6000806116c2846116b460028661361d90919063ffffffff16565b61331090919063ffffffff16565b85106116f6576116ef60046116e160038661359790919063ffffffff16565b61361d90919063ffffffff16565b9050611754565b8361170a848761331090919063ffffffff16565b116117185760009050611753565b611750600261174286611734878a61331090919063ffffffff16565b61366790919063ffffffff16565b61361d90919063ffffffff16565b90505b5b61177b600461176d60038661359790919063ffffffff16565b61361d90919063ffffffff16565b81111561178457fe5b809150509392505050565b600560029054906101000a900473ffffffffffffffffffffffffffffffffffffffff1681565b600560169054906101000a900460ff1681565b60065481565b600560019054906101000a900460ff16611850576040517f08c379a000000000000000000000000000000000000000000000000000000000815260040180806020018281038252601f8152602001807f5265656e7472616e637947756172643a207265656e7472616e742063616c6c0081525060200191505060405180910390fd5b6000600560016101000a81548160ff021916908315150217905550600560169054906101000a900460ff166118d0576040517f08c379a000000000000000000000000000000000000000000000000000000000815260040180806020018281038252603281526020018061407a6032913960400191505060405180910390fd5b42811015611929576040517f08c379a00000000000000000000000000000000000000000000000000000000081526004018080602001828103825260218152602001806142576021913960400191505060405180910390fd5b60008311611982576040517f08c379a000000000000000000000000000000000000000000000000000000000815260040180806020018281038252602c8152602001806140ac602c913960400191505060405180910390fd5b600560029054906101000a900473ffffffffffffffffffffffffffffffffffffffff1673ffffffffffffffffffffffffffffffffffffffff166370a08231336040518263ffffffff1660e01b8152600401808273ffffffffffffffffffffffffffffffffffffffff1673ffffffffffffffffffffffffffffffffffffffff16815260200191505060206040518083038186803b158015611a2157600080fd5b505afa158015611a35573d6000803e3d6000fd5b505050506040513d6020811015611a4b57600080fd5b8101908080519060200190929190505050831115611ab4576040517f08c379a000000000000000000000000000000000000000000000000000000000815260040180806020018281038252603381526020018061415e6033913960400191505060405180910390fd5b600560029054906101000a900473ffffffffffffffffffffffffffffffffffffffff1673ffffffffffffffffffffffffffffffffffffffff1663dd62ed3e33306040518363ffffffff1660e01b8152600401808373ffffffffffffffffffffffffffffffffffffffff1673ffffffffffffffffffffffffffffffffffffffff1681526020018273ffffffffffffffffffffffffffffffffffffffff1673ffffffffffffffffffffffffffffffffffffffff1681526020019250505060206040518083038186803b158015611b8757600080fd5b505afa158015611b9b573d6000803e3d6000fd5b505050506040513d6020811015611bb157600080fd5b8101908080519060200190929190505050831115611c37576040517f08c379a000000000000000000000000000000000000000000000000000000000815260040180806020018281038252601b8152602001807f44414920736f6c64206578636565647320616c6c6f77616e63652e000000000081525060200191505060405180910390fd5b6000611c4161117a565b90506000611c4d610f6a565b90506000611c5c828488610d91565b90506000611c69826132d9565b90506000611c936002611c85848661366790919063ffffffff16565b61361d90919063ffffffff16565b905086821015611cee576040517f08c379a00000000000000000000000000000000000000000000000000000000081526004018080602001828103825260368152602001806143576036913960400191505060405180910390fd5b611d038160065461331090919063ffffffff16565b600681905550611d2e81611d20848861366790919063ffffffff16565b61366790919063ffffffff16565b9450611d43888561331090919063ffffffff16565b9350816008600082825401925050819055507f32f21760164e80023509b3ff9e2f8c6ed28791923e55a7e3236c2831de3f2ff23383604051808373ffffffffffffffffffffffffffffffffffffffff1673ffffffffffffffffffffffffffffffffffffffff1681526020018281526020019250505060405180910390a1600560029054906101000a900473ffffffffffffffffffffffffffffffffffffffff1673ffffffffffffffffffffffffffffffffffffffff166323b872dd33308b6040518463ffffffff1660e01b8152600401808473ffffffffffffffffffffffffffffffffffffffff1673ffffffffffffffffffffffffffffffffffffffff1681526020018373ffffffffffffffffffffffffffffffffffffffff1673ffffffffffffffffffffffffffffffffffffffff1681526020018281526020019350505050602060405180830381600087803b158015611e9d57600080fd5b505af1158015611eb1573d6000803e3d6000fd5b505050506040513d6020811015611ec757600080fd5b8101908080519060200190929190505050611ede57fe5b611f07823373ffffffffffffffffffffffffffffffffffffffff16613be290919063ffffffff16565b3073ffffffffffffffffffffffffffffffffffffffff1631611f348660065461331090919063ffffffff16565b14611f3b57fe5b611f43610f6a565b8414611f4b57fe5b600060065411611f5757fe5b6000611f6161117a565b11611f6857fe5b6000611f72610e12565b11611f7957fe5b6000611f83610f6a565b11611f8a57fe5b50505050506001600560016101000a81548160ff021916908315150217905550505050565b6000600560169054906101000a900460ff16612016576040517f08c379a000000000000000000000000000000000000000000000000000000000815260040180806020018281038252603281526020018061407a6032913960400191505060405180910390fd5b612037612021610e12565b612029610e87565b61366790919063ffffffff16565b905090565b606060048054600181600116156101000203166002900480601f0160208091040260200160405190810160405280929190818152602001828054600181600116156101000203166002900480156120d45780601f106120a9576101008083540402835291602001916120d4565b820191906000526020600020905b8154815290600101906020018083116120b757829003601f168201915b5050505050905090565b60006121a16120eb613398565b8461219c8560405180606001604052806025815260200161438d6025913960016000612115613398565b73ffffffffffffffffffffffffffffffffffffffff1673ffffffffffffffffffffffffffffffffffffffff16815260200190815260200160002060008a73ffffffffffffffffffffffffffffffffffffffff1673ffffffffffffffffffffffffffffffffffffffff168152602001908152602001600020546139679092919063ffffffff16565b6133a0565b6001905092915050565b600560019054906101000a900460ff1661222d576040517f08c379a000000000000000000000000000000000000000000000000000000000815260040180806020018281038252601f8152602001807f5265656e7472616e637947756172643a207265656e7472616e742063616c6c0081525060200191505060405180910390fd5b6000600560016101000a81548160ff021916908315150217905550600560169054906101000a900460ff166122ad576040517f08c379a000000000000000000000000000000000000000000000000000000000815260040180806020018281038252603281526020018061407a6032913960400191505060405180910390fd5b42811015612306576040517f08c379a00000000000000000000000000000000000000000000000000000000081526004018080602001828103825260218152602001806142576021913960400191505060405180910390fd5b6000831161235f576040517f08c379a000000000000000000000000000000000000000000000000000000000815260040180806020018281038252602c81526020018061402c602c913960400191505060405180910390fd5b61236833611651565b8311156123c0576040517f08c379a00000000000000000000000000000000000000000000000000000000081526004018080602001828103825260338152602001806142016033913960400191505060405180910390fd5b60006123ca61117a565b905060006123d6610e12565b9050600061240160066123f360078961359790919063ffffffff16565b61361d90919063ffffffff16565b9050600061241a612415846006548a610d91565b6132d9565b905085811015612475576040517f08c379a00000000000000000000000000000000000000000000000000000000081526004018080602001828103825260368152602001806143576036913960400191505060405180910390fd5b61248a8160065461366790919063ffffffff16565b6006819055506124b5826124a7898661331090919063ffffffff16565b61366790919063ffffffff16565b9250806007600082825401925050819055507f4353906f75c34032842174d08bc06743a1ac0aa058377d7aaf228c18d9ff5c6b3382604051808373ffffffffffffffffffffffffffffffffffffffff1673ffffffffffffffffffffffffffffffffffffffff1681526020018281526020019250505060405180910390a161253d3330896136b1565b6125473083613d33565b612570813373ffffffffffffffffffffffffffffffffffffffff16613be290919063ffffffff16565b3073ffffffffffffffffffffffffffffffffffffffff163161259d8560065461331090919063ffffffff16565b146125a457fe5b6125ac610e12565b83146125b457fe5b6000600654116125c057fe5b60006125ca61117a565b116125d157fe5b60006125db610e12565b116125e257fe5b60006125ec610f6a565b116125f357fe5b505050506001600560016101000a81548160ff021916908315150217905550505050565b600061262b612624613398565b84846136b1565b6001905092915050565b60085481565b600560019054906101000a900460ff166126bd576040517f08c379a000000000000000000000000000000000000000000000000000000000815260040180806020018281038252601f8152602001807f5265656e7472616e637947756172643a207265656e7472616e742063616c6c0081525060200191505060405180910390fd5b6000600560016101000a81548160ff021916908315150217905550600560169054906101000a900460ff1661273d576040517f08c379a000000000000000000000000000000000000000000000000000000000815260040180806020018281038252603281526020018061407a6032913960400191505060405180910390fd5b42811015612796576040517f08c379a00000000000000000000000000000000000000000000000000000000081526004018080602001828103825260218152602001806142576021913960400191505060405180910390fd5b600034116127ef576040517f08c379a000000000000000000000000000000000000000000000000000000000815260040180806020018281038252602c8152602001806142c1602c913960400191505060405180910390fd5b600061280b346127fd61117a565b61366790919063ffffffff16565b90506000612817610f6a565b9050600061282e612829848434610d91565b6132d9565b9050600061285a61271061284c600f3461359790919063ffffffff16565b61361d90919063ffffffff16565b9050858210156128b5576040517f08c379a00000000000000000000000000000000000000000000000000000000081526004018080602001828103825260368152602001806141916036913960400191505060405180910390fd5b6128ca8160065461331090919063ffffffff16565b6006819055506128f5816128e7348761331090919063ffffffff16565b61366790919063ffffffff16565b935061290a828461366790919063ffffffff16565b9250346008600082825401925050819055507f98d421e5c4a1da60aebed870dd422925f0334c89f3b1aae24742fbe2e34b50453383604051808373ffffffffffffffffffffffffffffffffffffffff1673ffffffffffffffffffffffffffffffffffffffff1681526020018281526020019250505060405180910390a1600560029054906101000a900473ffffffffffffffffffffffffffffffffffffffff1673ffffffffffffffffffffffffffffffffffffffff1663a9059cbb33846040518363ffffffff1660e01b8152600401808373ffffffffffffffffffffffffffffffffffffffff1673ffffffffffffffffffffffffffffffffffffffff16815260200182815260200192505050602060405180830381600087803b158015612a3057600080fd5b505af1158015612a44573d6000803e3d6000fd5b505050506040513d6020811015612a5a57600080fd5b8101908080519060200190929190505050612a7157fe5b3073ffffffffffffffffffffffffffffffffffffffff1631612a9e8560065461331090919063ffffffff16565b14612aa557fe5b612aad610f6a565b8314612ab557fe5b600060065411612ac157fe5b6000612acb61117a565b11612ad257fe5b6000612adc610e12565b11612ae357fe5b6000612aed610f6a565b11612af457fe5b505050506001600560016101000a81548160ff0219169083151502179055505050565b6000600160008473ffffffffffffffffffffffffffffffffffffffff1673ffffffffffffffffffffffffffffffffffffffff16815260200190815260200160002060008373ffffffffffffffffffffffffffffffffffffffff1673ffffffffffffffffffffffffffffffffffffffff16815260200190815260200160002054905092915050565b600560019054906101000a900460ff16612c20576040517f08c379a000000000000000000000000000000000000000000000000000000000815260040180806020018281038252601f8152602001807f5265656e7472616e637947756172643a207265656e7472616e742063616c6c0081525060200191505060405180910390fd5b6000600560016101000a81548160ff021916908315150217905550600560169054906101000a900460ff16612ca0576040517f08c379a000000000000000000000000000000000000000000000000000000000815260040180806020018281038252603281526020018061407a6032913960400191505060405180910390fd5b42811015612cf9576040517f08c379a00000000000000000000000000000000000000000000000000000000081526004018080602001828103825260218152602001806142576021913960400191505060405180910390fd5b60008411612d52576040517f08c379a000000000000000000000000000000000000000000000000000000000815260040180806020018281038252602c81526020018061402c602c913960400191505060405180910390fd5b612d5b33611651565b841115612db3576040517f08c379a00000000000000000000000000000000000000000000000000000000081526004018080602001828103825260338152602001806142016033913960400191505060405180910390fd5b6000612dbd61117a565b90506000612dc9611faf565b90506000612dd5610e12565b90506000612de1610f6a565b90506000612e2489612e16612e1187612e03888f61359790919063ffffffff16565b61361d90919063ffffffff16565b6132d9565b61331090919063ffffffff16565b9050612e2e613fb1565b612e5d612e5886612e4a6006548e61359790919063ffffffff16565b61361d90919063ffffffff16565b6132d9565b816000018181525050612e93612e8e86612e80898e61359790919063ffffffff16565b61361d90919063ffffffff16565b6132d9565b816020018181525050612ec9612ec486612eb6868e61359790919063ffffffff16565b61361d90919063ffffffff16565b6132d9565b81604001818152505088612eee8260200151836000015161331090919063ffffffff16565b1015612f45576040517f08c379a00000000000000000000000000000000000000000000000000000000081526004018080602001828103825260368152602001806143576036913960400191505060405180910390fd5b8781604001511015612fa2576040517f08c379a00000000000000000000000000000000000000000000000000000000081526004018080602001828103825260368152602001806141916036913960400191505060405180910390fd5b612fbb816000015160065461366790919063ffffffff16565b600681905550612fd881602001518761366790919063ffffffff16565b9550612ff181604001518461366790919063ffffffff16565b92506130188261300a8c8761331090919063ffffffff16565b61366790919063ffffffff16565b9350806000015160076000828254019250508190555080602001516008600082825401925050819055507fbde0900d31f33265d0f0582adc6b73112c8a6c83c30799bcaf2517e6948113d63361307f8360200151846000015161331090919063ffffffff16565b8360400151604051808473ffffffffffffffffffffffffffffffffffffffff1673ffffffffffffffffffffffffffffffffffffffff168152602001838152602001828152602001935050505060405180910390a16130de33308c6136b1565b6130e83083613d33565b600560029054906101000a900473ffffffffffffffffffffffffffffffffffffffff1673ffffffffffffffffffffffffffffffffffffffff1663a9059cbb3383604001516040518363ffffffff1660e01b8152600401808373ffffffffffffffffffffffffffffffffffffffff1673ffffffffffffffffffffffffffffffffffffffff16815260200182815260200192505050602060405180830381600087803b15801561319557600080fd5b505af11580156131a9573d6000803e3d6000fd5b505050506040513d60208110156131bf57600080fd5b81019080805190602001909291905050506131d657fe5b6132196131f48260200151836000015161331090919063ffffffff16565b3373ffffffffffffffffffffffffffffffffffffffff16613be290919063ffffffff16565b3073ffffffffffffffffffffffffffffffffffffffff16316132468760065461331090919063ffffffff16565b1461324d57fe5b613255610e12565b841461325d57fe5b613265610f6a565b831461326d57fe5b60006006541161327957fe5b600061328361117a565b1161328a57fe5b6000613294610e12565b1161329b57fe5b60006132a5610f6a565b116132ac57fe5b5050505050506001600560016101000a81548160ff02191690831515021790555050505050565b60075481565b6000806133056103e86132f76103e58661359790919063ffffffff16565b61361d90919063ffffffff16565b905080915050919050565b60008082840190508381101561338e576040517f08c379a000000000000000000000000000000000000000000000000000000000815260040180806020018281038252601b8152602001807f536166654d6174683a206164646974696f6e206f766572666c6f77000000000081525060200191505060405180910390fd5b8091505092915050565b600033905090565b600073ffffffffffffffffffffffffffffffffffffffff168373ffffffffffffffffffffffffffffffffffffffff161415613426576040517f08c379a00000000000000000000000000000000000000000000000000000000081526004018080602001828103825260248152602001806143336024913960400191505060405180910390fd5b600073ffffffffffffffffffffffffffffffffffffffff168273ffffffffffffffffffffffffffffffffffffffff1614156134ac576040517f08c379a00000000000000000000000000000000000000000000000000000000081526004018080602001828103825260228152602001806140d86022913960400191505060405180910390fd5b80600160008573ffffffffffffffffffffffffffffffffffffffff1673ffffffffffffffffffffffffffffffffffffffff16815260200190815260200160002060008473ffffffffffffffffffffffffffffffffffffffff1673ffffffffffffffffffffffffffffffffffffffff168152602001908152602001600020819055508173ffffffffffffffffffffffffffffffffffffffff168373ffffffffffffffffffffffffffffffffffffffff167f8c5be1e5ebec7d5bd14f71427d1e84f3dd0314c0f7b2291e5b200ac8c7c3b925836040518082815260200191505060405180910390a3505050565b6000808314156135aa5760009050613617565b60008284029050828482816135bb57fe5b0414613612576040517f08c379a00000000000000000000000000000000000000000000000000000000081526004018080602001828103825260218152602001806142786021913960400191505060405180910390fd5b809150505b92915050565b600061365f83836040518060400160405280601a81526020017f536166654d6174683a206469766973696f6e206279207a65726f000000000000815250613eeb565b905092915050565b60006136a983836040518060400160405280601e81526020017f536166654d6174683a207375627472616374696f6e206f766572666c6f770000815250613967565b905092915050565b600073ffffffffffffffffffffffffffffffffffffffff168373ffffffffffffffffffffffffffffffffffffffff161415613737576040517f08c379a000000000000000000000000000000000000000000000000000000000815260040180806020018281038252602581526020018061430e6025913960400191505060405180910390fd5b600073ffffffffffffffffffffffffffffffffffffffff168273ffffffffffffffffffffffffffffffffffffffff1614156137bd576040517f08c379a0000000000000000000000000000000000000000000000000000000008152600401808060200182810382526023815260200180613fd36023913960400191505060405180910390fd5b61382881604051806060016040528060268152602001614138602691396000808773ffffffffffffffffffffffffffffffffffffffff1673ffffffffffffffffffffffffffffffffffffffff168152602001908152602001600020546139679092919063ffffffff16565b6000808573ffffffffffffffffffffffffffffffffffffffff1673ffffffffffffffffffffffffffffffffffffffff168152602001908152602001600020819055506138bb816000808573ffffffffffffffffffffffffffffffffffffffff1673ffffffffffffffffffffffffffffffffffffffff1681526020019081526020016000205461331090919063ffffffff16565b6000808473ffffffffffffffffffffffffffffffffffffffff1673ffffffffffffffffffffffffffffffffffffffff168152602001908152602001600020819055508173ffffffffffffffffffffffffffffffffffffffff168373ffffffffffffffffffffffffffffffffffffffff167fddf252ad1be2c89b69c2b068fc378daa952ba7f163c4a11628f55a4df523b3ef836040518082815260200191505060405180910390a3505050565b6000838311158290613a14576040517f08c379a00000000000000000000000000000000000000000000000000000000081526004018080602001828103825283818151815260200191508051906020019080838360005b838110156139d95780820151818401526020810190506139be565b50505050905090810190601f168015613a065780820380516001836020036101000a031916815260200191505b509250505060405180910390fd5b5060008385039050809150509392505050565b600073ffffffffffffffffffffffffffffffffffffffff168273ffffffffffffffffffffffffffffffffffffffff161415613aca576040517f08c379a000000000000000000000000000000000000000000000000000000000815260040180806020018281038252601f8152602001807f45524332303a206d696e7420746f20746865207a65726f20616464726573730081525060200191505060405180910390fd5b613adf8160025461331090919063ffffffff16565b600281905550613b36816000808573ffffffffffffffffffffffffffffffffffffffff1673ffffffffffffffffffffffffffffffffffffffff1681526020019081526020016000205461331090919063ffffffff16565b6000808473ffffffffffffffffffffffffffffffffffffffff1673ffffffffffffffffffffffffffffffffffffffff168152602001908152602001600020819055508173ffffffffffffffffffffffffffffffffffffffff16600073ffffffffffffffffffffffffffffffffffffffff167fddf252ad1be2c89b69c2b068fc378daa952ba7f163c4a11628f55a4df523b3ef836040518082815260200191505060405180910390a35050565b803073ffffffffffffffffffffffffffffffffffffffff16311015613c6f576040517f08c379a000000000000000000000000000000000000000000000000000000000815260040180806020018281038252601d8152602001807f416464726573733a20696e73756666696369656e742062616c616e636500000081525060200191505060405180910390fd5b60008273ffffffffffffffffffffffffffffffffffffffff168260405180600001905060006040518083038185875af1925050503d8060008114613ccf576040519150601f19603f3d011682016040523d82523d6000602084013e613cd4565b606091505b5050905080613d2e576040517f08c379a000000000000000000000000000000000000000000000000000000000815260040180806020018281038252603a8152602001806141c7603a913960400191505060405180910390fd5b505050565b600073ffffffffffffffffffffffffffffffffffffffff168273ffffffffffffffffffffffffffffffffffffffff161415613db9576040517f08c379a00000000000000000000000000000000000000000000000000000000081526004018080602001828103825260218152602001806142ed6021913960400191505060405180910390fd5b613e2481604051806060016040528060228152602001614058602291396000808673ffffffffffffffffffffffffffffffffffffffff1673ffffffffffffffffffffffffffffffffffffffff168152602001908152602001600020546139679092919063ffffffff16565b6000808473ffffffffffffffffffffffffffffffffffffffff1673ffffffffffffffffffffffffffffffffffffffff16815260200190815260200160002081905550613e7b8160025461366790919063ffffffff16565b600281905550600073ffffffffffffffffffffffffffffffffffffffff168273ffffffffffffffffffffffffffffffffffffffff167fddf252ad1be2c89b69c2b068fc378daa952ba7f163c4a11628f55a4df523b3ef836040518082815260200191505060405180910390a35050565b60008083118290613f97576040517f08c379a00000000000000000000000000000000000000000000000000000000081526004018080602001828103825283818151815260200191508051906020019080838360005b83811015613f5c578082015181840152602081019050613f41565b50505050905090810190601f168015613f895780820380516001836020036101000a031916815260200191505b509250505060405180910390fd5b506000838581613fa357fe5b049050809150509392505050565b6040518060600160405280600081526020016000815260200160008152509056fe45524332303a207472616e7366657220746f20746865207a65726f2061646472657373556e61626c6520746f2073656e6420746865206d696e696d756d207175616e74697479206f662045434c20746f20726563656976652e56616c7565206f662045434c20736f6c64206d7573742062652067726561746572207468616e207a65726f2e45524332303a206275726e20616d6f756e7420657863656564732062616c616e6365436f6e7472616374206d757374206265206c61756e6368656420746f20696e766f6b6520746869732066756e6374696f6e2e56616c7565206f662044414920736f6c64206d7573742062652067726561746572207468616e207a65726f2e45524332303a20617070726f766520746f20746865207a65726f206164647265737344414920706f6f6c2062616c616e6365206d7573742062652067726561746572207468616e207a65726f20746f206c61756e636820636f6e74726163742e45524332303a207472616e7366657220616d6f756e7420657863656564732062616c616e636544414920736f6c64206d757374206265206c657373207468616e206f7220657175616c20746f204441492062616c616e63652e556e61626c6520746f2073656e6420746865206d696e696d756d207175616e74697479206f662044414920746f20726563656976652e416464726573733a20756e61626c6520746f2073656e642076616c75652c20726563697069656e74206d6179206861766520726576657274656445434c20736f6c64206d757374206265206c657373207468616e206f7220657175616c20746f2045434c2062616c616e63652e436f6e74726163742068617320616c7265616479206265656e206c61756e636865642e5472616e73616374696f6e20646561646c696e652068617320656c61707365642e536166654d6174683a206d756c7469706c69636174696f6e206f766572666c6f7745524332303a207472616e7366657220616d6f756e74206578636565647320616c6c6f77616e636556616c7565206f66204554482073656e74206d7573742062652067726561746572207468616e207a65726f2e45524332303a206275726e2066726f6d20746865207a65726f206164647265737345524332303a207472616e736665722066726f6d20746865207a65726f206164647265737345524332303a20617070726f76652066726f6d20746865207a65726f2061646472657373556e61626c6520746f2073656e6420746865206d696e696d756d207175616e74697479206f662045544820746f20726563656976652e45524332303a2064656372656173656420616c6c6f77616e63652062656c6f77207a65726fa265627a7a72315820e4d75d711c21ac0edb695f8854d6d9fef472cb4b6da12a9aa7fa0c2010163c9a64736f6c634300051100324d7573742063616c6c20636f6e7374727563746f722077697468206174206c6561737420302e322045746865722e",
  "source": "pragma solidity =0.5.17;\r\n\r\nimport \"../node_modules/openzeppelin-solidity/contracts/token/ERC20/ERC20.sol\";\r\nimport \"../node_modules/openzeppelin-solidity/contracts/token/ERC20/ERC20Detailed.sol\";\r\nimport \"../node_modules/openzeppelin-solidity/contracts/utils/ReentrancyGuard.sol\";\r\nimport \"../node_modules/openzeppelin-solidity/contracts/utils/Address.sol\";\r\n\r\n/// @title The Eclipseum ERC20 Smart Contract\r\ncontract Eclipseum is ERC20, ERC20Detailed, ReentrancyGuard {\r\n    using SafeMath for uint256;\r\n    using Address for address payable;\r\n\r\n    struct SoftSellEclAmountsToReceive {\r\n        uint256 ethFromEclPool;\r\n        uint256 ethFromDaiPool;\r\n        uint256 daiFromDaiPool;\r\n    }\r\n\r\n    IERC20 public daiInterface;\r\n    bool public launched;\r\n    uint256 public ethBalanceOfEclPool;\r\n    uint256 public ethVolumeOfEclPool;\r\n    uint256 public ethVolumeOfDaiPool;\r\n\r\n    event LogBuyEcl(address userAddress, uint256 eclReceived);\r\n    event LogSellEcl(address userAddress, uint256 ethReceived);\r\n    event LogSoftSellEcl(\r\n        address userAddress,\r\n        uint256 ethReceived,\r\n        uint256 daiReceived\r\n    );\r\n    event LogBuyDai(address userAddress, uint256 daiReceived);\r\n    event LogSellDai(address userAddress, uint256 ethReceived);\r\n\r\n    modifier requireLaunched() {\r\n        require(launched, \"Contract must be launched to invoke this function.\");\r\n        _;\r\n    }\r\n\r\n    /// @notice The constructor must be called with at least 0.2 ETH.\r\n    constructor(address _daiAddress)\r\n        public\r\n        payable\r\n        ERC20Detailed(\"Eclipseum\", \"ECL\", 18)\r\n    {\r\n        require(\r\n            msg.value >= 0.2 ether,\r\n            \"Must call constructor with at least 0.2 Ether.\"\r\n        );\r\n        _mint(address(this), 100000 * (10**18));\r\n        daiInterface = IERC20(_daiAddress);\r\n    }\r\n\r\n    /// @notice This function is called once to launch the contract.\r\n    function launch() external {\r\n        require(!launched, \"Contract has already been launched.\");\r\n\r\n        require(\r\n            daiInterface.balanceOf(address(this)) > 0,\r\n            \"DAI pool balance must be greater than zero to launch contract.\"\r\n        );\r\n\r\n        ethBalanceOfEclPool = 0.1 ether;\r\n\r\n        launched = true;\r\n\r\n        assert(\r\n            ethBalanceOfEclPool.add(ethBalanceOfDaiPool()) ==\r\n                address(this).balance\r\n        );\r\n    }\r\n\r\n    /// @notice Allows a user to buy ECL with ETH from the ECL liquidity pool.\r\n    /// @param _minEclToReceive The minimum amount of ECL the user is willing to receive.\r\n    /// @param _deadline Epoch time deadline that the transaction must complete before.\r\n    function buyEcl(uint256 _minEclToReceive, uint256 _deadline)\r\n        external\r\n        payable\r\n        nonReentrant\r\n        requireLaunched\r\n    {\r\n        require(\r\n            _deadline >= block.timestamp,\r\n            \"Transaction deadline has elapsed.\"\r\n        );\r\n        require(msg.value > 0, \"Value of ETH sent must be greater than zero.\");\r\n\r\n        uint256 _ethBalanceOfDaiPool = ethBalanceOfDaiPool().sub(msg.value);\r\n        uint256 _eclBalanceOfEclPool = eclBalanceOfEclPool();\r\n        uint256 _eclToReceive = applyTransactionFee(\r\n            calcBOut(ethBalanceOfEclPool, _eclBalanceOfEclPool, msg.value)\r\n        );\r\n        uint256 _eclToMint = _eclToReceive.mul(7).div(6).add(1);\r\n        uint256 _ethTransferToDaiPool = calcEthTransferForBuyEcl(\r\n            ethBalanceOfEclPool,\r\n            _ethBalanceOfDaiPool,\r\n            msg.value\r\n        );\r\n\r\n        require(\r\n            _eclToReceive >= _minEclToReceive,\r\n            \"Unable to send the minimum quantity of ECL to receive.\"\r\n        );\r\n\r\n        ethBalanceOfEclPool = ethBalanceOfEclPool.add(msg.value).sub(\r\n            _ethTransferToDaiPool\r\n        );\r\n        _ethBalanceOfDaiPool = _ethBalanceOfDaiPool.add(_ethTransferToDaiPool);\r\n        _eclBalanceOfEclPool = _eclBalanceOfEclPool.sub(_eclToReceive).add(\r\n            _eclToMint\r\n        );\r\n        ethVolumeOfEclPool += msg.value;\r\n\r\n        emit LogBuyEcl(msg.sender, _eclToReceive);\r\n\r\n        _transfer(address(this), msg.sender, _eclToReceive);\r\n        _mint(address(this), _eclToMint);\r\n\r\n        assert(\r\n            ethBalanceOfEclPool.add(_ethBalanceOfDaiPool) ==\r\n                address(this).balance\r\n        );\r\n        assert(_eclBalanceOfEclPool == eclBalanceOfEclPool());\r\n        assert(ethBalanceOfEclPool > 0);\r\n        assert(ethBalanceOfDaiPool() > 0);\r\n        assert(eclBalanceOfEclPool() > 0);\r\n        assert(daiBalanceOfDaiPool() > 0);\r\n    }\r\n\r\n    /// @notice Allows a user to sell ECL for ETH to the ECL liquidity pool.\r\n    /// @param _eclSold The amount of ECL the user is selling.\r\n    /// @param _minEthToReceive The minimum amount of ETH the user is willing to receive.\r\n    /// @param _deadline Epoch time deadline that the transaction must complete before.\r\n    function sellEcl(\r\n        uint256 _eclSold,\r\n        uint256 _minEthToReceive,\r\n        uint256 _deadline\r\n    ) external nonReentrant requireLaunched {\r\n        require(\r\n            _deadline >= block.timestamp,\r\n            \"Transaction deadline has elapsed.\"\r\n        );\r\n        require(_eclSold > 0, \"Value of ECL sold must be greater than zero.\");\r\n        require(\r\n            _eclSold <= balanceOf(address(msg.sender)),\r\n            \"ECL sold must be less than or equal to ECL balance.\"\r\n        );\r\n\r\n        uint256 _ethBalanceOfDaiPool = ethBalanceOfDaiPool();\r\n        uint256 _eclBalanceOfEclPool = eclBalanceOfEclPool();\r\n        uint256 _eclToBurn = _eclSold.mul(7).div(6);\r\n        uint256 _ethToReceive = applyTransactionFee(\r\n            calcBOut(_eclBalanceOfEclPool, ethBalanceOfEclPool, _eclSold)\r\n        );\r\n\r\n        require(\r\n            _ethToReceive >= _minEthToReceive,\r\n            \"Unable to send the minimum quantity of ETH to receive.\"\r\n        );\r\n\r\n        ethBalanceOfEclPool = ethBalanceOfEclPool.sub(_ethToReceive);\r\n        _eclBalanceOfEclPool = _eclBalanceOfEclPool.add(_eclSold).sub(\r\n            _eclToBurn\r\n        );\r\n        ethVolumeOfEclPool += _ethToReceive;\r\n\r\n        emit LogSellEcl(msg.sender, _ethToReceive);\r\n\r\n        _transfer(address(msg.sender), address(this), _eclSold);\r\n        _burn(address(this), _eclToBurn);\r\n        msg.sender.sendValue(_ethToReceive);\r\n\r\n        assert(\r\n            ethBalanceOfEclPool.add(_ethBalanceOfDaiPool) ==\r\n                address(this).balance\r\n        );\r\n        assert(_eclBalanceOfEclPool == eclBalanceOfEclPool());\r\n        assert(ethBalanceOfEclPool > 0);\r\n        assert(ethBalanceOfDaiPool() > 0);\r\n        assert(eclBalanceOfEclPool() > 0);\r\n        assert(daiBalanceOfDaiPool() > 0);\r\n    }\r\n\r\n    /// @notice Allows a user to sell ECL for ETH and DAI to the ECL liquidity pool.\r\n    /// @param _eclSold The amount of ECL the user is selling.\r\n    /// @param _minEthToReceive The minimum amount of ETH the user is willing to receive.\r\n    /// @param _minDaiToReceive The minimum amount of DAI the user is willing to receive.\r\n    /// @param _deadline Epoch time deadline that the transaction must complete before.\r\n    function softSellEcl(\r\n        uint256 _eclSold,\r\n        uint256 _minEthToReceive,\r\n        uint256 _minDaiToReceive,\r\n        uint256 _deadline\r\n    ) external nonReentrant requireLaunched {\r\n        require(\r\n            _deadline >= block.timestamp,\r\n            \"Transaction deadline has elapsed.\"\r\n        );\r\n        require(_eclSold > 0, \"Value of ECL sold must be greater than zero.\");\r\n        require(\r\n            _eclSold <= balanceOf(address(msg.sender)),\r\n            \"ECL sold must be less than or equal to ECL balance.\"\r\n        );\r\n\r\n        uint256 _ethBalanceOfDaiPool = ethBalanceOfDaiPool();\r\n        uint256 _circulatingSupply = circulatingSupply();\r\n        uint256 _eclBalanceOfEclPool = eclBalanceOfEclPool();\r\n        uint256 _daiBalanceOfDaiPool = daiBalanceOfDaiPool();\r\n        uint256 _eclToBurn = applyTransactionFee(\r\n            _eclSold.mul(_eclBalanceOfEclPool).div(_circulatingSupply)\r\n        )\r\n            .add(_eclSold);\r\n        SoftSellEclAmountsToReceive memory _amountsToReceive;\r\n        _amountsToReceive.ethFromEclPool = applyTransactionFee(\r\n            _eclSold.mul(ethBalanceOfEclPool).div(_circulatingSupply)\r\n        );\r\n        _amountsToReceive.ethFromDaiPool = applyTransactionFee(\r\n            _eclSold.mul(_ethBalanceOfDaiPool).div(_circulatingSupply)\r\n        );\r\n        _amountsToReceive.daiFromDaiPool = applyTransactionFee(\r\n            _eclSold.mul(_daiBalanceOfDaiPool).div(_circulatingSupply)\r\n        );\r\n\r\n        require(\r\n            _amountsToReceive.ethFromEclPool.add(\r\n                _amountsToReceive.ethFromDaiPool\r\n            ) >= _minEthToReceive,\r\n            \"Unable to send the minimum quantity of ETH to receive.\"\r\n        );\r\n        require(\r\n            _amountsToReceive.daiFromDaiPool >= _minDaiToReceive,\r\n            \"Unable to send the minimum quantity of DAI to receive.\"\r\n        );\r\n\r\n        ethBalanceOfEclPool = ethBalanceOfEclPool.sub(\r\n            _amountsToReceive.ethFromEclPool\r\n        );\r\n        _ethBalanceOfDaiPool = _ethBalanceOfDaiPool.sub(\r\n            _amountsToReceive.ethFromDaiPool\r\n        );\r\n        _daiBalanceOfDaiPool = _daiBalanceOfDaiPool.sub(\r\n            _amountsToReceive.daiFromDaiPool\r\n        );\r\n        _eclBalanceOfEclPool = _eclBalanceOfEclPool.add(_eclSold).sub(\r\n            _eclToBurn\r\n        );\r\n        ethVolumeOfEclPool += _amountsToReceive.ethFromEclPool;\r\n        ethVolumeOfDaiPool += _amountsToReceive.ethFromDaiPool;\r\n\r\n        emit LogSoftSellEcl(\r\n            msg.sender,\r\n            _amountsToReceive.ethFromEclPool.add(\r\n                _amountsToReceive.ethFromDaiPool\r\n            ),\r\n            _amountsToReceive.daiFromDaiPool\r\n        );\r\n\r\n        _transfer(address(msg.sender), address(this), _eclSold);\r\n        _burn(address(this), _eclToBurn);\r\n        assert(\r\n            daiInterface.transfer(msg.sender, _amountsToReceive.daiFromDaiPool)\r\n        );\r\n        msg.sender.sendValue(\r\n            _amountsToReceive.ethFromEclPool.add(\r\n                _amountsToReceive.ethFromDaiPool\r\n            )\r\n        );\r\n\r\n        assert(\r\n            ethBalanceOfEclPool.add(_ethBalanceOfDaiPool) ==\r\n                address(this).balance\r\n        );\r\n        assert(_eclBalanceOfEclPool == eclBalanceOfEclPool());\r\n        assert(_daiBalanceOfDaiPool == daiBalanceOfDaiPool());\r\n        assert(ethBalanceOfEclPool > 0);\r\n        assert(ethBalanceOfDaiPool() > 0);\r\n        assert(eclBalanceOfEclPool() > 0);\r\n        assert(daiBalanceOfDaiPool() > 0);\r\n    }\r\n\r\n    /// @notice Allows a user to buy DAI with ETH from the DAI liquidity pool.\r\n    /// @param _minDaiToReceive The minimum amount of DAI the user is willing to receive.\r\n    /// @param _deadline Epoch time deadline that the transaction must complete before.\r\n    function buyDai(uint256 _minDaiToReceive, uint256 _deadline)\r\n        external\r\n        payable\r\n        nonReentrant\r\n        requireLaunched\r\n    {\r\n        require(\r\n            _deadline >= block.timestamp,\r\n            \"Transaction deadline has elapsed.\"\r\n        );\r\n        require(msg.value > 0, \"Value of ETH sent must be greater than zero.\");\r\n\r\n        uint256 _ethBalanceOfDaiPool = ethBalanceOfDaiPool().sub(msg.value);\r\n        uint256 _daiBalanceOfDaiPool = daiBalanceOfDaiPool();\r\n        uint256 _daiToReceive = applyTransactionFee(\r\n            calcBOut(_ethBalanceOfDaiPool, _daiBalanceOfDaiPool, msg.value)\r\n        );\r\n        uint256 _ethTransferToEclPool = msg.value.mul(15).div(10000);\r\n\r\n        require(\r\n            _daiToReceive >= _minDaiToReceive,\r\n            \"Unable to send the minimum quantity of DAI to receive.\"\r\n        );\r\n\r\n        ethBalanceOfEclPool = ethBalanceOfEclPool.add(_ethTransferToEclPool);\r\n        _ethBalanceOfDaiPool = _ethBalanceOfDaiPool.add(msg.value).sub(\r\n            _ethTransferToEclPool\r\n        );\r\n        _daiBalanceOfDaiPool = _daiBalanceOfDaiPool.sub(_daiToReceive);\r\n        ethVolumeOfDaiPool += msg.value;\r\n\r\n        emit LogBuyDai(msg.sender, _daiToReceive);\r\n\r\n        assert(daiInterface.transfer(address(msg.sender), _daiToReceive));\r\n\r\n        assert(\r\n            ethBalanceOfEclPool.add(_ethBalanceOfDaiPool) ==\r\n                address(this).balance\r\n        );\r\n        assert(_daiBalanceOfDaiPool == daiBalanceOfDaiPool());\r\n        assert(ethBalanceOfEclPool > 0);\r\n        assert(ethBalanceOfDaiPool() > 0);\r\n        assert(eclBalanceOfEclPool() > 0);\r\n        assert(daiBalanceOfDaiPool() > 0);\r\n    }\r\n\r\n    /// @notice Allows a user to sell DAI for ETH to the DAI liquidity pool.\r\n    /// @param _daiSold The amount of DAI the user is selling.\r\n    /// @param _minEthToReceive The minimum amount of ETH the user is willing to receive.\r\n    /// @param _deadline Epoch time deadline that the transaction must complete before.\r\n    function sellDai(\r\n        uint256 _daiSold,\r\n        uint256 _minEthToReceive,\r\n        uint256 _deadline\r\n    ) external nonReentrant requireLaunched {\r\n        require(\r\n            _deadline >= block.timestamp,\r\n            \"Transaction deadline has elapsed.\"\r\n        );\r\n        require(_daiSold > 0, \"Value of DAI sold must be greater than zero.\");\r\n        require(\r\n            _daiSold <= daiInterface.balanceOf(address(msg.sender)),\r\n            \"DAI sold must be less than or equal to DAI balance.\"\r\n        );\r\n        require(\r\n            _daiSold <=\r\n                daiInterface.allowance(address(msg.sender), address(this)),\r\n            \"DAI sold exceeds allowance.\"\r\n        );\r\n\r\n        uint256 _ethBalanceOfDaiPool = ethBalanceOfDaiPool();\r\n        uint256 _daiBalanceOfDaiPool = daiBalanceOfDaiPool();\r\n        uint256 _ethToReceiveBeforeFee = calcBOut(\r\n            _daiBalanceOfDaiPool,\r\n            _ethBalanceOfDaiPool,\r\n            _daiSold\r\n        );\r\n        uint256 _ethToReceive = applyTransactionFee(_ethToReceiveBeforeFee);\r\n        uint256 _ethTransferToEclPool = _ethToReceiveBeforeFee\r\n            .sub(_ethToReceive)\r\n            .div(2);\r\n\r\n        require(\r\n            _ethToReceive >= _minEthToReceive,\r\n            \"Unable to send the minimum quantity of ETH to receive.\"\r\n        );\r\n\r\n        ethBalanceOfEclPool = ethBalanceOfEclPool.add(_ethTransferToEclPool);\r\n        _ethBalanceOfDaiPool = _ethBalanceOfDaiPool.sub(_ethToReceive).sub(\r\n            _ethTransferToEclPool\r\n        );\r\n        _daiBalanceOfDaiPool = _daiBalanceOfDaiPool.add(_daiSold);\r\n        ethVolumeOfDaiPool += _ethToReceive;\r\n\r\n        emit LogSellDai(msg.sender, _ethToReceive);\r\n\r\n        assert(\r\n            daiInterface.transferFrom(\r\n                address(msg.sender),\r\n                address(this),\r\n                _daiSold\r\n            )\r\n        );\r\n        msg.sender.sendValue(_ethToReceive);\r\n\r\n        assert(\r\n            ethBalanceOfEclPool.add(_ethBalanceOfDaiPool) ==\r\n                address(this).balance\r\n        );\r\n        assert(_daiBalanceOfDaiPool == daiBalanceOfDaiPool());\r\n        assert(ethBalanceOfEclPool > 0);\r\n        assert(ethBalanceOfDaiPool() > 0);\r\n        assert(eclBalanceOfEclPool() > 0);\r\n        assert(daiBalanceOfDaiPool() > 0);\r\n    }\r\n\r\n    /// @notice Calculates amount of asset B for user to receive using constant product market maker algorithm.\r\n    /// @dev A value of one is subtracted in the _bToReceive calculation to prevent rounding\r\n    /// @dev errors from removing more of the asset from the liquidity pool than intended.\r\n    /// @param _aBalance The balance of asset A in the liquidity pool.\r\n    /// @param _bBalance The balance of asset B in the liquidity pool.\r\n    /// @param _aSent The quantity of asset A sent by the user to the liquidity pool.\r\n    /// @return _bToReceive The quantity of asset B the user would receive before transaction fee is applied.\r\n    function calcBOut(\r\n        uint256 _aBalance,\r\n        uint256 _bBalance,\r\n        uint256 _aSent\r\n    ) public pure returns (uint256) {\r\n        uint256 _denominator = _aBalance.add(_aSent);\r\n        uint256 _fraction = _aBalance.mul(_bBalance).div(_denominator);\r\n        uint256 _bToReceive = _bBalance.sub(_fraction).sub(1);\r\n\r\n        assert(_bToReceive < _bBalance);\r\n\r\n        return _bToReceive;\r\n    }\r\n\r\n    /// @notice Calculates the amount of ETH to transfer from the ECL pool to the DAI pool for the buyEcl function.\r\n    /// @param _ethBalanceOfEclPool The balance of ETH in the ECL liquidity pool.\r\n    /// @param _ethBalanceOfDaiPool The balance of ETH in the DAI liquidity pool.\r\n    /// @param _ethSent The quantity of ETH sent by the user in the buyEcl function.\r\n    /// @return _ethTransferToDaiPool The quantity of ETH to transfer from the ECL pool to the DAI pool.\r\n    function calcEthTransferForBuyEcl(\r\n        uint256 _ethBalanceOfEclPool,\r\n        uint256 _ethBalanceOfDaiPool,\r\n        uint256 _ethSent\r\n    ) public pure returns (uint256) {\r\n        uint256 _ethTransferToDaiPool;\r\n\r\n        if (_ethBalanceOfEclPool >= _ethSent.div(2).add(_ethBalanceOfDaiPool)) {\r\n            _ethTransferToDaiPool = _ethSent.mul(3).div(4);\r\n        } else if (_ethBalanceOfEclPool.add(_ethSent) <= _ethBalanceOfDaiPool) {\r\n            _ethTransferToDaiPool = 0;\r\n        } else {\r\n            _ethTransferToDaiPool = _ethBalanceOfEclPool\r\n                .add(_ethSent)\r\n                .sub(_ethBalanceOfDaiPool)\r\n                .div(2);\r\n        }\r\n\r\n        assert(_ethTransferToDaiPool <= _ethSent.mul(3).div(4));\r\n\r\n        return _ethTransferToDaiPool;\r\n    }\r\n\r\n    /// @notice Calculates the amount for the user to receive with a 0.3% transaction fee applied.\r\n    /// @param _amountBeforeFee The amount the user will receive before transaction fee is applied.\r\n    /// @return _amountAfterFee The amount the user will receive with transaction fee applied.\r\n    function applyTransactionFee(uint256 _amountBeforeFee)\r\n        public\r\n        pure\r\n        returns (uint256)\r\n    {\r\n        uint256 _amountAfterFee = _amountBeforeFee.mul(997).div(1000);\r\n        return _amountAfterFee;\r\n    }\r\n\r\n    /// @notice Returns the ECL balance of the ECL pool.\r\n    function eclBalanceOfEclPool()\r\n        public\r\n        view\r\n        requireLaunched\r\n        returns (uint256)\r\n    {\r\n        return balanceOf(address(this));\r\n    }\r\n\r\n    /// @notice Returns the ETH balance of the DAI pool.\r\n    function ethBalanceOfDaiPool()\r\n        public\r\n        view\r\n        requireLaunched\r\n        returns (uint256)\r\n    {\r\n        return address(this).balance.sub(ethBalanceOfEclPool);\r\n    }\r\n\r\n    /// @notice Returns the DAI balance of the DAI pool.\r\n    function daiBalanceOfDaiPool()\r\n        public\r\n        view\r\n        requireLaunched\r\n        returns (uint256)\r\n    {\r\n        return daiInterface.balanceOf(address(this));\r\n    }\r\n\r\n    /// @notice Returns the circulating supply of ECL.\r\n    function circulatingSupply() public view requireLaunched returns (uint256) {\r\n        return totalSupply().sub(eclBalanceOfEclPool());\r\n    }\r\n}\r\n",
  "sourcePath": "C:\\Users\\tbweb\\eclipseum-core\\contracts\\Eclipseum.sol",
  "compiler": {
    "name": "solc",
    "version": "0.5.17+commit.d19bba13.Emscripten.clang"
  },
  "schemaVersion": "3.1.0",
  "updatedAt": "2020-07-22T22:55:40.572Z",
  "devdoc": {
    "methods": {
      "allowance(address,address)": {
        "details": "See {IERC20-allowance}."
      },
      "applyTransactionFee(uint256)": {
        "params": {
          "_amountBeforeFee": "The amount the user will receive before transaction fee is applied."
        },
        "return": "_amountAfterFee The amount the user will receive with transaction fee applied."
      },
      "approve(address,uint256)": {
        "details": "See {IERC20-approve}.     * Requirements:     * - `spender` cannot be the zero address."
      },
      "balanceOf(address)": {
        "details": "See {IERC20-balanceOf}."
      },
      "buyDai(uint256,uint256)": {
        "params": {
          "_deadline": "Epoch time deadline that the transaction must complete before.",
          "_minDaiToReceive": "The minimum amount of DAI the user is willing to receive."
        }
      },
      "buyEcl(uint256,uint256)": {
        "params": {
          "_deadline": "Epoch time deadline that the transaction must complete before.",
          "_minEclToReceive": "The minimum amount of ECL the user is willing to receive."
        }
      },
      "calcBOut(uint256,uint256,uint256)": {
        "details": "A value of one is subtracted in the _bToReceive calculation to prevent roundingerrors from removing more of the asset from the liquidity pool than intended.",
        "params": {
          "_aBalance": "The balance of asset A in the liquidity pool.",
          "_aSent": "The quantity of asset A sent by the user to the liquidity pool.",
          "_bBalance": "The balance of asset B in the liquidity pool."
        },
        "return": "_bToReceive The quantity of asset B the user would receive before transaction fee is applied."
      },
      "calcEthTransferForBuyEcl(uint256,uint256,uint256)": {
        "params": {
          "_ethBalanceOfDaiPool": "The balance of ETH in the DAI liquidity pool.",
          "_ethBalanceOfEclPool": "The balance of ETH in the ECL liquidity pool.",
          "_ethSent": "The quantity of ETH sent by the user in the buyEcl function."
        },
        "return": "_ethTransferToDaiPool The quantity of ETH to transfer from the ECL pool to the DAI pool."
      },
      "decimals()": {
        "details": "Returns the number of decimals used to get its user representation. For example, if `decimals` equals `2`, a balance of `505` tokens should be displayed to a user as `5,05` (`505 / 10 ** 2`).     * Tokens usually opt for a value of 18, imitating the relationship between Ether and Wei.     * NOTE: This information is only used for _display_ purposes: it in no way affects any of the arithmetic of the contract, including {IERC20-balanceOf} and {IERC20-transfer}."
      },
      "decreaseAllowance(address,uint256)": {
        "details": "Atomically decreases the allowance granted to `spender` by the caller.     * This is an alternative to {approve} that can be used as a mitigation for problems described in {IERC20-approve}.     * Emits an {Approval} event indicating the updated allowance.     * Requirements:     * - `spender` cannot be the zero address. - `spender` must have allowance for the caller of at least `subtractedValue`."
      },
      "increaseAllowance(address,uint256)": {
        "details": "Atomically increases the allowance granted to `spender` by the caller.     * This is an alternative to {approve} that can be used as a mitigation for problems described in {IERC20-approve}.     * Emits an {Approval} event indicating the updated allowance.     * Requirements:     * - `spender` cannot be the zero address."
      },
      "name()": {
        "details": "Returns the name of the token."
      },
      "sellDai(uint256,uint256,uint256)": {
        "params": {
          "_daiSold": "The amount of DAI the user is selling.",
          "_deadline": "Epoch time deadline that the transaction must complete before.",
          "_minEthToReceive": "The minimum amount of ETH the user is willing to receive."
        }
      },
      "sellEcl(uint256,uint256,uint256)": {
        "params": {
          "_deadline": "Epoch time deadline that the transaction must complete before.",
          "_eclSold": "The amount of ECL the user is selling.",
          "_minEthToReceive": "The minimum amount of ETH the user is willing to receive."
        }
      },
      "softSellEcl(uint256,uint256,uint256,uint256)": {
        "params": {
          "_deadline": "Epoch time deadline that the transaction must complete before.",
          "_eclSold": "The amount of ECL the user is selling.",
          "_minDaiToReceive": "The minimum amount of DAI the user is willing to receive.",
          "_minEthToReceive": "The minimum amount of ETH the user is willing to receive."
        }
      },
      "symbol()": {
        "details": "Returns the symbol of the token, usually a shorter version of the name."
      },
      "totalSupply()": {
        "details": "See {IERC20-totalSupply}."
      },
      "transfer(address,uint256)": {
        "details": "See {IERC20-transfer}.     * Requirements:     * - `recipient` cannot be the zero address. - the caller must have a balance of at least `amount`."
      },
      "transferFrom(address,address,uint256)": {
        "details": "See {IERC20-transferFrom}.     * Emits an {Approval} event indicating the updated allowance. This is not required by the EIP. See the note at the beginning of {ERC20};     * Requirements: - `sender` and `recipient` cannot be the zero address. - `sender` must have a balance of at least `amount`. - the caller must have allowance for `sender`'s tokens of at least `amount`."
      }
    },
    "title": "The Eclipseum ERC20 Smart Contract"
  },
  "userdoc": {
    "methods": {
      "applyTransactionFee(uint256)": {
        "notice": "Calculates the amount for the user to receive with a 0.3% transaction fee applied."
      },
      "buyDai(uint256,uint256)": {
        "notice": "Allows a user to buy DAI with ETH from the DAI liquidity pool."
      },
      "buyEcl(uint256,uint256)": {
        "notice": "Allows a user to buy ECL with ETH from the ECL liquidity pool."
      },
      "calcBOut(uint256,uint256,uint256)": {
        "notice": "Calculates amount of asset B for user to receive using constant product market maker algorithm."
      },
      "calcEthTransferForBuyEcl(uint256,uint256,uint256)": {
        "notice": "Calculates the amount of ETH to transfer from the ECL pool to the DAI pool for the buyEcl function."
      },
      "circulatingSupply()": {
        "notice": "Returns the circulating supply of ECL."
      },
      "constructor": "The constructor must be called with at least 0.2 ETH.",
      "daiBalanceOfDaiPool()": {
        "notice": "Returns the DAI balance of the DAI pool."
      },
      "eclBalanceOfEclPool()": {
        "notice": "Returns the ECL balance of the ECL pool."
      },
      "ethBalanceOfDaiPool()": {
        "notice": "Returns the ETH balance of the DAI pool."
      },
      "launch()": {
        "notice": "This function is called once to launch the contract."
      },
      "sellDai(uint256,uint256,uint256)": {
        "notice": "Allows a user to sell DAI for ETH to the DAI liquidity pool."
      },
      "sellEcl(uint256,uint256,uint256)": {
        "notice": "Allows a user to sell ECL for ETH to the ECL liquidity pool."
      },
      "softSellEcl(uint256,uint256,uint256,uint256)": {
        "notice": "Allows a user to sell ECL for ETH and DAI to the ECL liquidity pool."
      }
    }
  }
}