{
  "contractName": "Eclipseum",
  "abi": [
    {
      "inputs": [
        {
          "internalType": "address",
          "name": "_daiAddress",
          "type": "address"
        }
      ],
      "payable": true,
      "stateMutability": "payable",
      "type": "constructor"
    },
    {
      "anonymous": false,
      "inputs": [
        {
          "indexed": true,
          "internalType": "address",
          "name": "owner",
          "type": "address"
        },
        {
          "indexed": true,
          "internalType": "address",
          "name": "spender",
          "type": "address"
        },
        {
          "indexed": false,
          "internalType": "uint256",
          "name": "value",
          "type": "uint256"
        }
      ],
      "name": "Approval",
      "type": "event"
    },
    {
      "anonymous": false,
      "inputs": [
        {
          "indexed": true,
          "internalType": "address",
          "name": "userAddress",
          "type": "address"
        },
        {
          "indexed": false,
          "internalType": "uint256",
          "name": "ethSpent",
          "type": "uint256"
        },
        {
          "indexed": false,
          "internalType": "uint256",
          "name": "daiReceived",
          "type": "uint256"
        }
      ],
      "name": "LogBuyDai",
      "type": "event"
    },
    {
      "anonymous": false,
      "inputs": [
        {
          "indexed": true,
          "internalType": "address",
          "name": "userAddress",
          "type": "address"
        },
        {
          "indexed": false,
          "internalType": "uint256",
          "name": "ethSpent",
          "type": "uint256"
        },
        {
          "indexed": false,
          "internalType": "uint256",
          "name": "eclReceived",
          "type": "uint256"
        }
      ],
      "name": "LogBuyEcl",
      "type": "event"
    },
    {
      "anonymous": false,
      "inputs": [
        {
          "indexed": true,
          "internalType": "address",
          "name": "userAddress",
          "type": "address"
        },
        {
          "indexed": false,
          "internalType": "uint256",
          "name": "daiSold",
          "type": "uint256"
        },
        {
          "indexed": false,
          "internalType": "uint256",
          "name": "ethReceived",
          "type": "uint256"
        }
      ],
      "name": "LogSellDai",
      "type": "event"
    },
    {
      "anonymous": false,
      "inputs": [
        {
          "indexed": true,
          "internalType": "address",
          "name": "userAddress",
          "type": "address"
        },
        {
          "indexed": false,
          "internalType": "uint256",
          "name": "eclSold",
          "type": "uint256"
        },
        {
          "indexed": false,
          "internalType": "uint256",
          "name": "ethReceived",
          "type": "uint256"
        }
      ],
      "name": "LogSellEcl",
      "type": "event"
    },
    {
      "anonymous": false,
      "inputs": [
        {
          "indexed": true,
          "internalType": "address",
          "name": "userAddress",
          "type": "address"
        },
        {
          "indexed": false,
          "internalType": "uint256",
          "name": "eclSold",
          "type": "uint256"
        },
        {
          "indexed": false,
          "internalType": "uint256",
          "name": "ethReceived",
          "type": "uint256"
        },
        {
          "indexed": false,
          "internalType": "uint256",
          "name": "daiReceived",
          "type": "uint256"
        }
      ],
      "name": "LogSoftSellEcl",
      "type": "event"
    },
    {
      "anonymous": false,
      "inputs": [
        {
          "indexed": true,
          "internalType": "address",
          "name": "from",
          "type": "address"
        },
        {
          "indexed": true,
          "internalType": "address",
          "name": "to",
          "type": "address"
        },
        {
          "indexed": false,
          "internalType": "uint256",
          "name": "value",
          "type": "uint256"
        }
      ],
      "name": "Transfer",
      "type": "event"
    },
    {
      "constant": true,
      "inputs": [
        {
          "internalType": "address",
          "name": "owner",
          "type": "address"
        },
        {
          "internalType": "address",
          "name": "spender",
          "type": "address"
        }
      ],
      "name": "allowance",
      "outputs": [
        {
          "internalType": "uint256",
          "name": "",
          "type": "uint256"
        }
      ],
      "payable": false,
      "stateMutability": "view",
      "type": "function"
    },
    {
      "constant": false,
      "inputs": [
        {
          "internalType": "address",
          "name": "spender",
          "type": "address"
        },
        {
          "internalType": "uint256",
          "name": "amount",
          "type": "uint256"
        }
      ],
      "name": "approve",
      "outputs": [
        {
          "internalType": "bool",
          "name": "",
          "type": "bool"
        }
      ],
      "payable": false,
      "stateMutability": "nonpayable",
      "type": "function"
    },
    {
      "constant": true,
      "inputs": [
        {
          "internalType": "address",
          "name": "account",
          "type": "address"
        }
      ],
      "name": "balanceOf",
      "outputs": [
        {
          "internalType": "uint256",
          "name": "",
          "type": "uint256"
        }
      ],
      "payable": false,
      "stateMutability": "view",
      "type": "function"
    },
    {
      "constant": true,
      "inputs": [],
      "name": "daiInterface",
      "outputs": [
        {
          "internalType": "contract IERC20",
          "name": "",
          "type": "address"
        }
      ],
      "payable": false,
      "stateMutability": "view",
      "type": "function"
    },
    {
      "constant": true,
      "inputs": [],
      "name": "decimals",
      "outputs": [
        {
          "internalType": "uint8",
          "name": "",
          "type": "uint8"
        }
      ],
      "payable": false,
      "stateMutability": "view",
      "type": "function"
    },
    {
      "constant": false,
      "inputs": [
        {
          "internalType": "address",
          "name": "spender",
          "type": "address"
        },
        {
          "internalType": "uint256",
          "name": "subtractedValue",
          "type": "uint256"
        }
      ],
      "name": "decreaseAllowance",
      "outputs": [
        {
          "internalType": "bool",
          "name": "",
          "type": "bool"
        }
      ],
      "payable": false,
      "stateMutability": "nonpayable",
      "type": "function"
    },
    {
      "constant": true,
      "inputs": [],
      "name": "ethBalanceOfEclPool",
      "outputs": [
        {
          "internalType": "uint256",
          "name": "",
          "type": "uint256"
        }
      ],
      "payable": false,
      "stateMutability": "view",
      "type": "function"
    },
    {
      "constant": true,
      "inputs": [],
      "name": "ethVolumeOfDaiPool",
      "outputs": [
        {
          "internalType": "uint256",
          "name": "",
          "type": "uint256"
        }
      ],
      "payable": false,
      "stateMutability": "view",
      "type": "function"
    },
    {
      "constant": true,
      "inputs": [],
      "name": "ethVolumeOfEclPool",
      "outputs": [
        {
          "internalType": "uint256",
          "name": "",
          "type": "uint256"
        }
      ],
      "payable": false,
      "stateMutability": "view",
      "type": "function"
    },
    {
      "constant": false,
      "inputs": [
        {
          "internalType": "address",
          "name": "spender",
          "type": "address"
        },
        {
          "internalType": "uint256",
          "name": "addedValue",
          "type": "uint256"
        }
      ],
      "name": "increaseAllowance",
      "outputs": [
        {
          "internalType": "bool",
          "name": "",
          "type": "bool"
        }
      ],
      "payable": false,
      "stateMutability": "nonpayable",
      "type": "function"
    },
    {
      "constant": true,
      "inputs": [],
      "name": "launched",
      "outputs": [
        {
          "internalType": "bool",
          "name": "",
          "type": "bool"
        }
      ],
      "payable": false,
      "stateMutability": "view",
      "type": "function"
    },
    {
      "constant": true,
      "inputs": [],
      "name": "name",
      "outputs": [
        {
          "internalType": "string",
          "name": "",
          "type": "string"
        }
      ],
      "payable": false,
      "stateMutability": "view",
      "type": "function"
    },
    {
      "constant": true,
      "inputs": [],
      "name": "symbol",
      "outputs": [
        {
          "internalType": "string",
          "name": "",
          "type": "string"
        }
      ],
      "payable": false,
      "stateMutability": "view",
      "type": "function"
    },
    {
      "constant": true,
      "inputs": [],
      "name": "totalSupply",
      "outputs": [
        {
          "internalType": "uint256",
          "name": "",
          "type": "uint256"
        }
      ],
      "payable": false,
      "stateMutability": "view",
      "type": "function"
    },
    {
      "constant": false,
      "inputs": [
        {
          "internalType": "address",
          "name": "recipient",
          "type": "address"
        },
        {
          "internalType": "uint256",
          "name": "amount",
          "type": "uint256"
        }
      ],
      "name": "transfer",
      "outputs": [
        {
          "internalType": "bool",
          "name": "",
          "type": "bool"
        }
      ],
      "payable": false,
      "stateMutability": "nonpayable",
      "type": "function"
    },
    {
      "constant": false,
      "inputs": [
        {
          "internalType": "address",
          "name": "sender",
          "type": "address"
        },
        {
          "internalType": "address",
          "name": "recipient",
          "type": "address"
        },
        {
          "internalType": "uint256",
          "name": "amount",
          "type": "uint256"
        }
      ],
      "name": "transferFrom",
      "outputs": [
        {
          "internalType": "bool",
          "name": "",
          "type": "bool"
        }
      ],
      "payable": false,
      "stateMutability": "nonpayable",
      "type": "function"
    },
    {
      "constant": false,
      "inputs": [],
      "name": "launch",
      "outputs": [],
      "payable": false,
      "stateMutability": "nonpayable",
      "type": "function"
    },
    {
      "constant": false,
      "inputs": [
        {
          "internalType": "uint256",
          "name": "minEclToReceive",
          "type": "uint256"
        },
        {
          "internalType": "uint256",
          "name": "deadline",
          "type": "uint256"
        }
      ],
      "name": "buyEcl",
      "outputs": [],
      "payable": true,
      "stateMutability": "payable",
      "type": "function"
    },
    {
      "constant": false,
      "inputs": [
        {
          "internalType": "uint256",
          "name": "eclSold",
          "type": "uint256"
        },
        {
          "internalType": "uint256",
          "name": "minEthToReceive",
          "type": "uint256"
        },
        {
          "internalType": "uint256",
          "name": "deadline",
          "type": "uint256"
        }
      ],
      "name": "sellEcl",
      "outputs": [],
      "payable": false,
      "stateMutability": "nonpayable",
      "type": "function"
    },
    {
      "constant": false,
      "inputs": [
        {
          "internalType": "uint256",
          "name": "eclSold",
          "type": "uint256"
        },
        {
          "internalType": "uint256",
          "name": "minEthToReceive",
          "type": "uint256"
        },
        {
          "internalType": "uint256",
          "name": "minDaiToReceive",
          "type": "uint256"
        },
        {
          "internalType": "uint256",
          "name": "deadline",
          "type": "uint256"
        }
      ],
      "name": "softSellEcl",
      "outputs": [],
      "payable": false,
      "stateMutability": "nonpayable",
      "type": "function"
    },
    {
      "constant": false,
      "inputs": [
        {
          "internalType": "uint256",
          "name": "minDaiToReceive",
          "type": "uint256"
        },
        {
          "internalType": "uint256",
          "name": "deadline",
          "type": "uint256"
        }
      ],
      "name": "buyDai",
      "outputs": [],
      "payable": true,
      "stateMutability": "payable",
      "type": "function"
    },
    {
      "constant": false,
      "inputs": [
        {
          "internalType": "uint256",
          "name": "daiSold",
          "type": "uint256"
        },
        {
          "internalType": "uint256",
          "name": "minEthToReceive",
          "type": "uint256"
        },
        {
          "internalType": "uint256",
          "name": "deadline",
          "type": "uint256"
        }
      ],
      "name": "sellDai",
      "outputs": [],
      "payable": false,
      "stateMutability": "nonpayable",
      "type": "function"
    },
    {
      "constant": true,
      "inputs": [
        {
          "internalType": "uint256",
          "name": "aBalance",
          "type": "uint256"
        },
        {
          "internalType": "uint256",
          "name": "bBalance",
          "type": "uint256"
        },
        {
          "internalType": "uint256",
          "name": "aSent",
          "type": "uint256"
        }
      ],
      "name": "calcBOut",
      "outputs": [
        {
          "internalType": "uint256",
          "name": "",
          "type": "uint256"
        }
      ],
      "payable": false,
      "stateMutability": "pure",
      "type": "function"
    },
    {
      "constant": true,
      "inputs": [
        {
          "internalType": "uint256",
          "name": "ethBalanceOfEclPoolLocal",
          "type": "uint256"
        },
        {
          "internalType": "uint256",
          "name": "ethBalanceOfDaiPoolLocal",
          "type": "uint256"
        },
        {
          "internalType": "uint256",
          "name": "ethSent",
          "type": "uint256"
        }
      ],
      "name": "calcEthTransferForBuyEcl",
      "outputs": [
        {
          "internalType": "uint256",
          "name": "",
          "type": "uint256"
        }
      ],
      "payable": false,
      "stateMutability": "pure",
      "type": "function"
    },
    {
      "constant": true,
      "inputs": [
        {
          "internalType": "uint256",
          "name": "amountBeforeFee",
          "type": "uint256"
        }
      ],
      "name": "applyTransactionFee",
      "outputs": [
        {
          "internalType": "uint256",
          "name": "",
          "type": "uint256"
        }
      ],
      "payable": false,
      "stateMutability": "pure",
      "type": "function"
    },
    {
      "constant": true,
      "inputs": [],
      "name": "eclBalanceOfEclPool",
      "outputs": [
        {
          "internalType": "uint256",
          "name": "",
          "type": "uint256"
        }
      ],
      "payable": false,
      "stateMutability": "view",
      "type": "function"
    },
    {
      "constant": true,
      "inputs": [],
      "name": "ethBalanceOfDaiPool",
      "outputs": [
        {
          "internalType": "uint256",
          "name": "",
          "type": "uint256"
        }
      ],
      "payable": false,
      "stateMutability": "view",
      "type": "function"
    },
    {
      "constant": true,
      "inputs": [],
      "name": "daiBalanceOfDaiPool",
      "outputs": [
        {
          "internalType": "uint256",
          "name": "",
          "type": "uint256"
        }
      ],
      "payable": false,
      "stateMutability": "view",
      "type": "function"
    },
    {
      "constant": true,
      "inputs": [],
      "name": "circulatingSupply",
      "outputs": [
        {
          "internalType": "uint256",
          "name": "",
          "type": "uint256"
        }
      ],
      "payable": false,
      "stateMutability": "view",
      "type": "function"
    }
  ],
  "bytecode": "0x60806040526040516200493238038062004932833981810160405260208110156200002957600080fd5b81019080805190602001909291905050506040518060400160405280600981526020017f45636c69707365756d00000000000000000000000000000000000000000000008152506040518060400160405280600381526020017f45434c000000000000000000000000000000000000000000000000000000000081525060128260039080519060200190620000c09291906200042c565b508160049080519060200190620000d99291906200042c565b5080600560006101000a81548160ff021916908360ff1602179055505050506001600560016101000a81548160ff02191690831515021790555066470de4df82000034101562000175576040517f08c379a000000000000000000000000000000000000000000000000000000000815260040180806020018281038252602f81526020018062004903602f913960400191505060405180910390fd5b620001913069152d02c7e14af6800000620001d960201b60201c565b80600560026101000a81548173ffffffffffffffffffffffffffffffffffffffff021916908373ffffffffffffffffffffffffffffffffffffffff16021790555050620004db565b600073ffffffffffffffffffffffffffffffffffffffff168273ffffffffffffffffffffffffffffffffffffffff1614156200027d576040517f08c379a000000000000000000000000000000000000000000000000000000000815260040180806020018281038252601f8152602001807f45524332303a206d696e7420746f20746865207a65726f20616464726573730081525060200191505060405180910390fd5b6200029981600254620003a360201b620035411790919060201c565b600281905550620002f7816000808573ffffffffffffffffffffffffffffffffffffffff1673ffffffffffffffffffffffffffffffffffffffff16815260200190815260200160002054620003a360201b620035411790919060201c565b6000808473ffffffffffffffffffffffffffffffffffffffff1673ffffffffffffffffffffffffffffffffffffffff168152602001908152602001600020819055508173ffffffffffffffffffffffffffffffffffffffff16600073ffffffffffffffffffffffffffffffffffffffff167fddf252ad1be2c89b69c2b068fc378daa952ba7f163c4a11628f55a4df523b3ef836040518082815260200191505060405180910390a35050565b60008082840190508381101562000422576040517f08c379a000000000000000000000000000000000000000000000000000000000815260040180806020018281038252601b8152602001807f536166654d6174683a206164646974696f6e206f766572666c6f77000000000081525060200191505060405180910390fd5b8091505092915050565b828054600181600116156101000203166002900490600052602060002090601f016020900481019282601f106200046f57805160ff1916838001178555620004a0565b82800160010185558215620004a0579182015b828111156200049f57825182559160200191906001019062000482565b5b509050620004af9190620004b3565b5090565b620004d891905b80821115620004d4576000816000905550600101620004ba565b5090565b90565b61441880620004eb6000396000f3fe6080604052600436106101c25760003560e01c806371a2bf1f116100f7578063a72a9b8211610095578063dd62ed3e11610064578063dd62ed3e1461097a578063de52b28e146109ff578063e0d33fc114610a58578063efbf2d5a14610a83576101c2565b8063a72a9b8214610855578063a9059cbb146108a4578063b2e7b68614610917578063b7fdddbd14610942576101c2565b80638d16fd83116100d15780638d16fd83146106d85780639358928b1461072757806395d89b4114610752578063a457c2d7146107e2576101c2565b806371a2bf1f146106275780638091f3bf1461067e5780638994990d146106ad576101c2565b80632d56a4da116101645780635da271c51161013e5780635da271c5146104fc5780635ec5b53f1461052757806370a082311461055f57806370c4752a146105c4576101c2565b80632d56a4da1461042d578063313ce567146104585780633950935114610489576101c2565b80630c8fb8ee116101a05780630c8fb8ee146102e157806315506ea41461034457806318160ddd1461036f57806323b872dd1461039a576101c2565b806301339c21146101c757806306fdde03146101de578063095ea7b31461026e575b600080fd5b3480156101d357600080fd5b506101dc610ad2565b005b3480156101ea57600080fd5b506101f3610c95565b6040518080602001828103825283818151815260200191508051906020019080838360005b83811015610233578082015181840152602081019050610218565b50505050905090810190601f1680156102605780820380516001836020036101000a031916815260200191505b509250505060405180910390f35b34801561027a57600080fd5b506102c76004803603604081101561029157600080fd5b81019080803573ffffffffffffffffffffffffffffffffffffffff16906020019092919080359060200190929190505050610d37565b604051808215151515815260200191505060405180910390f35b3480156102ed57600080fd5b5061032e6004803603606081101561030457600080fd5b81019080803590602001909291908035906020019092919080359060200190929190505050610d55565b6040518082815260200191505060405180910390f35b34801561035057600080fd5b50610359610dd6565b6040518082815260200191505060405180910390f35b34801561037b57600080fd5b50610384610e4b565b6040518082815260200191505060405180910390f35b3480156103a657600080fd5b50610413600480360360608110156103bd57600080fd5b81019080803573ffffffffffffffffffffffffffffffffffffffff169060200190929190803573ffffffffffffffffffffffffffffffffffffffff16906020019092919080359060200190929190505050610e55565b604051808215151515815260200191505060405180910390f35b34801561043957600080fd5b50610442610f2e565b6040518082815260200191505060405180910390f35b34801561046457600080fd5b5061046d611074565b604051808260ff1660ff16815260200191505060405180910390f35b34801561049557600080fd5b506104e2600480360360408110156104ac57600080fd5b81019080803573ffffffffffffffffffffffffffffffffffffffff1690602001909291908035906020019092919050505061108b565b604051808215151515815260200191505060405180910390f35b34801561050857600080fd5b5061051161113e565b6040518082815260200191505060405180910390f35b61055d6004803603604081101561053d57600080fd5b8101908080359060200190929190803590602001909291905050506111d6565b005b34801561056b57600080fd5b506105ae6004803603602081101561058257600080fd5b81019080803573ffffffffffffffffffffffffffffffffffffffff1690602001909291905050506115dc565b6040518082815260200191505060405180910390f35b3480156105d057600080fd5b50610611600480360360608110156105e757600080fd5b81019080803590602001909291908035906020019092919080359060200190929190505050611624565b6040518082815260200191505060405180910390f35b34801561063357600080fd5b5061063c61172d565b604051808273ffffffffffffffffffffffffffffffffffffffff1673ffffffffffffffffffffffffffffffffffffffff16815260200191505060405180910390f35b34801561068a57600080fd5b50610693611753565b604051808215151515815260200191505060405180910390f35b3480156106b957600080fd5b506106c2611766565b6040518082815260200191505060405180910390f35b3480156106e457600080fd5b50610725600480360360608110156106fb57600080fd5b8101908080359060200190929190803590602001909291908035906020019092919050505061176c565b005b34801561073357600080fd5b5061073c611f80565b6040518082815260200191505060405180910390f35b34801561075e57600080fd5b5061076761200d565b6040518080602001828103825283818151815260200191508051906020019080838360005b838110156107a757808201518184015260208101905061078c565b50505050905090810190601f1680156107d45780820380516001836020036101000a031916815260200191505b509250505060405180910390f35b3480156107ee57600080fd5b5061083b6004803603604081101561080557600080fd5b81019080803573ffffffffffffffffffffffffffffffffffffffff169060200190929190803590602001909291905050506120af565b604051808215151515815260200191505060405180910390f35b34801561086157600080fd5b506108a26004803603606081101561087857600080fd5b8101908080359060200190929190803590602001909291908035906020019092919050505061217c565b005b3480156108b057600080fd5b506108fd600480360360408110156108c757600080fd5b81019080803573ffffffffffffffffffffffffffffffffffffffff169060200190929190803590602001909291905050506125af565b604051808215151515815260200191505060405180910390f35b34801561092357600080fd5b5061092c6125cd565b6040518082815260200191505060405180910390f35b6109786004803603604081101561095857600080fd5b8101908080359060200190929190803590602001909291905050506125d3565b005b34801561098657600080fd5b506109e96004803603604081101561099d57600080fd5b81019080803573ffffffffffffffffffffffffffffffffffffffff169060200190929190803573ffffffffffffffffffffffffffffffffffffffff169060200190929190505050612ae2565b6040518082815260200191505060405180910390f35b348015610a0b57600080fd5b50610a5660048036036080811015610a2257600080fd5b8101908080359060200190929190803590602001909291908035906020019092919080359060200190929190505050612b69565b005b348015610a6457600080fd5b50610a6d613305565b6040518082815260200191505060405180910390f35b348015610a8f57600080fd5b50610abc60048036036020811015610aa657600080fd5b810190808035906020019092919050505061330b565b6040518082815260200191505060405180910390f35b600560169054906101000a900460ff1615610b38576040517f08c379a00000000000000000000000000000000000000000000000000000000081526004018080602001828103825260238152602001806142666023913960400191505060405180910390fd5b6000600560029054906101000a900473ffffffffffffffffffffffffffffffffffffffff1673ffffffffffffffffffffffffffffffffffffffff166370a08231306040518263ffffffff1660e01b8152600401808273ffffffffffffffffffffffffffffffffffffffff1673ffffffffffffffffffffffffffffffffffffffff16815260200191505060206040518083038186803b158015610bd957600080fd5b505afa158015610bed573d6000803e3d6000fd5b505050506040513d6020811015610c0357600080fd5b810190808051906020019092919050505011610c6a576040517f08c379a000000000000000000000000000000000000000000000000000000000815260040180806020018281038252603e81526020018061412c603e913960400191505060405180910390fd5b662386f26fc100006006819055506001600560166101000a81548160ff021916908315150217905550565b606060038054600181600116156101000203166002900480601f016020809104026020016040519081016040528092919081815260200182805460018160011615610100020316600290048015610d2d5780601f10610d0257610100808354040283529160200191610d2d565b820191906000526020600020905b815481529060010190602001808311610d1057829003601f168201915b5050505050905090565b6000610d4b610d44613342565b848461334a565b6001905092915050565b600080610d6b838661354190919063ffffffff16565b90506000610d9482610d8687896135c990919063ffffffff16565b61364f90919063ffffffff16565b90506000610dbe6001610db0848961369990919063ffffffff16565b61369990919063ffffffff16565b9050858110610dc957fe5b8093505050509392505050565b6000600560169054906101000a900460ff16610e3d576040517f08c379a00000000000000000000000000000000000000000000000000000000081526004018080602001828103825260328152602001806140ac6032913960400191505060405180910390fd5b610e46306115dc565b905090565b6000600254905090565b6000610e628484846136e3565b610f2384610e6e613342565b610f1e856040518060600160405280602881526020016142cb60289139600160008b73ffffffffffffffffffffffffffffffffffffffff1673ffffffffffffffffffffffffffffffffffffffff1681526020019081526020016000206000610ed4613342565b73ffffffffffffffffffffffffffffffffffffffff1673ffffffffffffffffffffffffffffffffffffffff168152602001908152602001600020546139999092919063ffffffff16565b61334a565b600190509392505050565b6000600560169054906101000a900460ff16610f95576040517f08c379a00000000000000000000000000000000000000000000000000000000081526004018080602001828103825260328152602001806140ac6032913960400191505060405180910390fd5b600560029054906101000a900473ffffffffffffffffffffffffffffffffffffffff1673ffffffffffffffffffffffffffffffffffffffff166370a08231306040518263ffffffff1660e01b8152600401808273ffffffffffffffffffffffffffffffffffffffff1673ffffffffffffffffffffffffffffffffffffffff16815260200191505060206040518083038186803b15801561103457600080fd5b505afa158015611048573d6000803e3d6000fd5b505050506040513d602081101561105e57600080fd5b8101908080519060200190929190505050905090565b6000600560009054906101000a900460ff16905090565b6000611134611098613342565b8461112f85600160006110a9613342565b73ffffffffffffffffffffffffffffffffffffffff1673ffffffffffffffffffffffffffffffffffffffff16815260200190815260200160002060008973ffffffffffffffffffffffffffffffffffffffff1673ffffffffffffffffffffffffffffffffffffffff1681526020019081526020016000205461354190919063ffffffff16565b61334a565b6001905092915050565b6000600560169054906101000a900460ff166111a5576040517f08c379a00000000000000000000000000000000000000000000000000000000081526004018080602001828103825260328152602001806140ac6032913960400191505060405180910390fd5b6111d16006543073ffffffffffffffffffffffffffffffffffffffff163161369990919063ffffffff16565b905090565b600560019054906101000a900460ff16611258576040517f08c379a000000000000000000000000000000000000000000000000000000000815260040180806020018281038252601f8152602001807f5265656e7472616e637947756172643a207265656e7472616e742063616c6c0081525060200191505060405180910390fd5b6000600560016101000a81548160ff021916908315150217905550600560169054906101000a900460ff166112d8576040517f08c379a00000000000000000000000000000000000000000000000000000000081526004018080602001828103825260328152602001806140ac6032913960400191505060405180910390fd5b42811015611331576040517f08c379a00000000000000000000000000000000000000000000000000000000081526004018080602001828103825260218152602001806142896021913960400191505060405180910390fd5b6000341161138a576040517f08c379a000000000000000000000000000000000000000000000000000000000815260040180806020018281038252602c8152602001806142f3602c913960400191505060405180910390fd5b60006113a63461139861113e565b61369990919063ffffffff16565b905060006113b2610dd6565b905060006113cb6113c66006548434610d55565b61330b565b9050600061140960016113fb60066113ed6007876135c990919063ffffffff16565b61364f90919063ffffffff16565b61354190919063ffffffff16565b9050600061141a6006548634611624565b905086831015611475576040517f08c379a00000000000000000000000000000000000000000000000000000000081526004018080602001828103825260368152602001806140286036913960400191505060405180910390fd5b61149c8161148e3460065461354190919063ffffffff16565b61369990919063ffffffff16565b6006819055506114b5818661354190919063ffffffff16565b94506114dc826114ce858761369990919063ffffffff16565b61354190919063ffffffff16565b9350346007600082825401925050819055503373ffffffffffffffffffffffffffffffffffffffff167f4e952d032e460bef7f0cd205df5b3372a7c451693b3709a22eaae359564970fd3485604051808381526020018281526020019250505060405180910390a261154f3033856136e3565b6115593083613a59565b61156161113e565b851461156957fe5b611571610dd6565b841461157957fe5b60006006541161158557fe5b600061158f61113e565b1161159657fe5b60006115a0610dd6565b116115a757fe5b60006115b1610f2e565b116115b857fe5b50505050506001600560016101000a81548160ff0219169083151502179055505050565b60008060008373ffffffffffffffffffffffffffffffffffffffff1673ffffffffffffffffffffffffffffffffffffffff168152602001908152602001600020549050919050565b6000806116608461165260066116446004886135c990919063ffffffff16565b61364f90919063ffffffff16565b61354190919063ffffffff16565b85106116945761168d600661167f6005866135c990919063ffffffff16565b61364f90919063ffffffff16565b90506116f2565b836116a8868561354190919063ffffffff16565b116116b657600090506116f1565b6116ee60026116e0866116d2898861354190919063ffffffff16565b61369990919063ffffffff16565b61364f90919063ffffffff16565b90505b5b611719600661170b6005866135c990919063ffffffff16565b61364f90919063ffffffff16565b81111561172257fe5b809150509392505050565b600560029054906101000a900473ffffffffffffffffffffffffffffffffffffffff1681565b600560169054906101000a900460ff1681565b60065481565b600560019054906101000a900460ff166117ee576040517f08c379a000000000000000000000000000000000000000000000000000000000815260040180806020018281038252601f8152602001807f5265656e7472616e637947756172643a207265656e7472616e742063616c6c0081525060200191505060405180910390fd5b6000600560016101000a81548160ff021916908315150217905550600560169054906101000a900460ff1661186e576040517f08c379a00000000000000000000000000000000000000000000000000000000081526004018080602001828103825260328152602001806140ac6032913960400191505060405180910390fd5b428110156118c7576040517f08c379a00000000000000000000000000000000000000000000000000000000081526004018080602001828103825260218152602001806142896021913960400191505060405180910390fd5b60008311611920576040517f08c379a000000000000000000000000000000000000000000000000000000000815260040180806020018281038252602c8152602001806140de602c913960400191505060405180910390fd5b600560029054906101000a900473ffffffffffffffffffffffffffffffffffffffff1673ffffffffffffffffffffffffffffffffffffffff166370a08231336040518263ffffffff1660e01b8152600401808273ffffffffffffffffffffffffffffffffffffffff1673ffffffffffffffffffffffffffffffffffffffff16815260200191505060206040518083038186803b1580156119bf57600080fd5b505afa1580156119d3573d6000803e3d6000fd5b505050506040513d60208110156119e957600080fd5b8101908080519060200190929190505050831115611a52576040517f08c379a00000000000000000000000000000000000000000000000000000000081526004018080602001828103825260338152602001806141906033913960400191505060405180910390fd5b600560029054906101000a900473ffffffffffffffffffffffffffffffffffffffff1673ffffffffffffffffffffffffffffffffffffffff1663dd62ed3e33306040518363ffffffff1660e01b8152600401808373ffffffffffffffffffffffffffffffffffffffff1673ffffffffffffffffffffffffffffffffffffffff1681526020018273ffffffffffffffffffffffffffffffffffffffff1673ffffffffffffffffffffffffffffffffffffffff1681526020019250505060206040518083038186803b158015611b2557600080fd5b505afa158015611b39573d6000803e3d6000fd5b505050506040513d6020811015611b4f57600080fd5b8101908080519060200190929190505050831115611bd5576040517f08c379a000000000000000000000000000000000000000000000000000000000815260040180806020018281038252601b8152602001807f44414920736f6c64206578636565647320616c6c6f77616e63652e000000000081525060200191505060405180910390fd5b6000611bdf61113e565b90506000611beb610f2e565b90506000611bfa828488610d55565b90506000611c078261330b565b90506000611c316002611c23848661369990919063ffffffff16565b61364f90919063ffffffff16565b905086821015611c8c576040517f08c379a00000000000000000000000000000000000000000000000000000000081526004018080602001828103825260368152602001806143896036913960400191505060405180910390fd5b611ca18160065461354190919063ffffffff16565b600681905550611ccc81611cbe848861369990919063ffffffff16565b61369990919063ffffffff16565b9450611ce1888561354190919063ffffffff16565b9350816008600082825401925050819055503373ffffffffffffffffffffffffffffffffffffffff167fc92ee676c7d3543e3f165531791fdb8bfc912698dbdf5512ee22d5c7270e307d8984604051808381526020018281526020019250505060405180910390a2600560029054906101000a900473ffffffffffffffffffffffffffffffffffffffff1673ffffffffffffffffffffffffffffffffffffffff166323b872dd33308b6040518463ffffffff1660e01b8152600401808473ffffffffffffffffffffffffffffffffffffffff1673ffffffffffffffffffffffffffffffffffffffff1681526020018373ffffffffffffffffffffffffffffffffffffffff1673ffffffffffffffffffffffffffffffffffffffff1681526020018281526020019350505050602060405180830381600087803b158015611e2657600080fd5b505af1158015611e3a573d6000803e3d6000fd5b505050506040513d6020811015611e5057600080fd5b8101908080519060200190929190505050611ed3576040517f08c379a00000000000000000000000000000000000000000000000000000000081526004018080602001828103825260148152602001807f444149205472616e73666572206661696c65642e00000000000000000000000081525060200191505060405180910390fd5b611efc823373ffffffffffffffffffffffffffffffffffffffff16613c1490919063ffffffff16565b611f0461113e565b8514611f0c57fe5b611f14610f2e565b8414611f1c57fe5b600060065411611f2857fe5b6000611f3261113e565b11611f3957fe5b6000611f43610dd6565b11611f4a57fe5b6000611f54610f2e565b11611f5b57fe5b50505050506001600560016101000a81548160ff021916908315150217905550505050565b6000600560169054906101000a900460ff16611fe7576040517f08c379a00000000000000000000000000000000000000000000000000000000081526004018080602001828103825260328152602001806140ac6032913960400191505060405180910390fd5b612008611ff2610dd6565b611ffa610e4b565b61369990919063ffffffff16565b905090565b606060048054600181600116156101000203166002900480601f0160208091040260200160405190810160405280929190818152602001828054600181600116156101000203166002900480156120a55780601f1061207a576101008083540402835291602001916120a5565b820191906000526020600020905b81548152906001019060200180831161208857829003601f168201915b5050505050905090565b60006121726120bc613342565b8461216d856040518060600160405280602581526020016143bf60259139600160006120e6613342565b73ffffffffffffffffffffffffffffffffffffffff1673ffffffffffffffffffffffffffffffffffffffff16815260200190815260200160002060008a73ffffffffffffffffffffffffffffffffffffffff1673ffffffffffffffffffffffffffffffffffffffff168152602001908152602001600020546139999092919063ffffffff16565b61334a565b6001905092915050565b600560019054906101000a900460ff166121fe576040517f08c379a000000000000000000000000000000000000000000000000000000000815260040180806020018281038252601f8152602001807f5265656e7472616e637947756172643a207265656e7472616e742063616c6c0081525060200191505060405180910390fd5b6000600560016101000a81548160ff021916908315150217905550600560169054906101000a900460ff1661227e576040517f08c379a00000000000000000000000000000000000000000000000000000000081526004018080602001828103825260328152602001806140ac6032913960400191505060405180910390fd5b428110156122d7576040517f08c379a00000000000000000000000000000000000000000000000000000000081526004018080602001828103825260218152602001806142896021913960400191505060405180910390fd5b60008311612330576040517f08c379a000000000000000000000000000000000000000000000000000000000815260040180806020018281038252602c81526020018061405e602c913960400191505060405180910390fd5b612339336115dc565b831115612391576040517f08c379a00000000000000000000000000000000000000000000000000000000081526004018080602001828103825260338152602001806142336033913960400191505060405180910390fd5b600061239b61113e565b905060006123a7610dd6565b905060006123d260066123c46007896135c990919063ffffffff16565b61364f90919063ffffffff16565b905060006123eb6123e6846006548a610d55565b61330b565b905085811015612446576040517f08c379a00000000000000000000000000000000000000000000000000000000081526004018080602001828103825260368152602001806143896036913960400191505060405180910390fd5b61245b8160065461369990919063ffffffff16565b60068190555061248682612478898661354190919063ffffffff16565b61369990919063ffffffff16565b9250806007600082825401925050819055503373ffffffffffffffffffffffffffffffffffffffff167f84f6901b5ec225d317e970c4bbac634752d8ad6120f8fd6cb54e36b991f6e4d48883604051808381526020018281526020019250505060405180910390a26124f93330896136e3565b6125033083613d65565b61252c813373ffffffffffffffffffffffffffffffffffffffff16613c1490919063ffffffff16565b61253461113e565b841461253c57fe5b612544610dd6565b831461254c57fe5b60006006541161255857fe5b600061256261113e565b1161256957fe5b6000612573610dd6565b1161257a57fe5b6000612584610f2e565b1161258b57fe5b505050506001600560016101000a81548160ff021916908315150217905550505050565b60006125c36125bc613342565b84846136e3565b6001905092915050565b60085481565b600560019054906101000a900460ff16612655576040517f08c379a000000000000000000000000000000000000000000000000000000000815260040180806020018281038252601f8152602001807f5265656e7472616e637947756172643a207265656e7472616e742063616c6c0081525060200191505060405180910390fd5b6000600560016101000a81548160ff021916908315150217905550600560169054906101000a900460ff166126d5576040517f08c379a00000000000000000000000000000000000000000000000000000000081526004018080602001828103825260328152602001806140ac6032913960400191505060405180910390fd5b4281101561272e576040517f08c379a00000000000000000000000000000000000000000000000000000000081526004018080602001828103825260218152602001806142896021913960400191505060405180910390fd5b60003411612787576040517f08c379a000000000000000000000000000000000000000000000000000000000815260040180806020018281038252602c8152602001806142f3602c913960400191505060405180910390fd5b60006127a33461279561113e565b61369990919063ffffffff16565b905060006127af610f2e565b905060006127c66127c1848434610d55565b61330b565b905060006127f26127106127e4600f346135c990919063ffffffff16565b61364f90919063ffffffff16565b90508582101561284d576040517f08c379a00000000000000000000000000000000000000000000000000000000081526004018080602001828103825260368152602001806141c36036913960400191505060405180910390fd5b6128628160065461354190919063ffffffff16565b60068190555061288d8161287f348761354190919063ffffffff16565b61369990919063ffffffff16565b93506128a2828461369990919063ffffffff16565b9250346008600082825401925050819055503373ffffffffffffffffffffffffffffffffffffffff167fd7f129755b0adfc490a800a8cbe4d30f6f64004f8ca96f66dfc52a153f2711793484604051808381526020018281526020019250505060405180910390a2600560029054906101000a900473ffffffffffffffffffffffffffffffffffffffff1673ffffffffffffffffffffffffffffffffffffffff1663a9059cbb33846040518363ffffffff1660e01b8152600401808373ffffffffffffffffffffffffffffffffffffffff1673ffffffffffffffffffffffffffffffffffffffff16815260200182815260200192505050602060405180830381600087803b1580156129b357600080fd5b505af11580156129c7573d6000803e3d6000fd5b505050506040513d60208110156129dd57600080fd5b8101908080519060200190929190505050612a60576040517f08c379a00000000000000000000000000000000000000000000000000000000081526004018080602001828103825260148152602001807f444149205472616e73666572206661696c65642e00000000000000000000000081525060200191505060405180910390fd5b612a6861113e565b8414612a7057fe5b612a78610f2e565b8314612a8057fe5b600060065411612a8c57fe5b6000612a9661113e565b11612a9d57fe5b6000612aa7610dd6565b11612aae57fe5b6000612ab8610f2e565b11612abf57fe5b505050506001600560016101000a81548160ff0219169083151502179055505050565b6000600160008473ffffffffffffffffffffffffffffffffffffffff1673ffffffffffffffffffffffffffffffffffffffff16815260200190815260200160002060008373ffffffffffffffffffffffffffffffffffffffff1673ffffffffffffffffffffffffffffffffffffffff16815260200190815260200160002054905092915050565b600560019054906101000a900460ff16612beb576040517f08c379a000000000000000000000000000000000000000000000000000000000815260040180806020018281038252601f8152602001807f5265656e7472616e637947756172643a207265656e7472616e742063616c6c0081525060200191505060405180910390fd5b6000600560016101000a81548160ff021916908315150217905550600560169054906101000a900460ff16612c6b576040517f08c379a00000000000000000000000000000000000000000000000000000000081526004018080602001828103825260328152602001806140ac6032913960400191505060405180910390fd5b42811015612cc4576040517f08c379a00000000000000000000000000000000000000000000000000000000081526004018080602001828103825260218152602001806142896021913960400191505060405180910390fd5b60008411612d1d576040517f08c379a000000000000000000000000000000000000000000000000000000000815260040180806020018281038252602c81526020018061405e602c913960400191505060405180910390fd5b612d26336115dc565b841115612d7e576040517f08c379a00000000000000000000000000000000000000000000000000000000081526004018080602001828103825260338152602001806142336033913960400191505060405180910390fd5b6000612d8861113e565b90506000612d94611f80565b90506000612da0610dd6565b90506000612dac610f2e565b90506000612def89612de1612ddc87612dce888f6135c990919063ffffffff16565b61364f90919063ffffffff16565b61330b565b61354190919063ffffffff16565b9050612df9613fe3565b612e28612e2386612e156006548e6135c990919063ffffffff16565b61364f90919063ffffffff16565b61330b565b816000018181525050612e5e612e5986612e4b898e6135c990919063ffffffff16565b61364f90919063ffffffff16565b61330b565b816020018181525050612e94612e8f86612e81868e6135c990919063ffffffff16565b61364f90919063ffffffff16565b61330b565b81604001818152505088612eb98260200151836000015161354190919063ffffffff16565b1015612f10576040517f08c379a00000000000000000000000000000000000000000000000000000000081526004018080602001828103825260368152602001806143896036913960400191505060405180910390fd5b8781604001511015612f6d576040517f08c379a00000000000000000000000000000000000000000000000000000000081526004018080602001828103825260368152602001806141c36036913960400191505060405180910390fd5b612f86816000015160065461369990919063ffffffff16565b600681905550612fa381602001518761369990919063ffffffff16565b9550612fbc81604001518461369990919063ffffffff16565b9250612fe382612fd58c8761354190919063ffffffff16565b61369990919063ffffffff16565b9350806000015160076000828254019250508190555080602001516008600082825401925050819055503373ffffffffffffffffffffffffffffffffffffffff167fcdf22f28ecc3956314db1390306bcf84c8747ac94c3a0e6d2385ba9f01b89c3b8b6130618460200151856000015161354190919063ffffffff16565b846040015160405180848152602001838152602001828152602001935050505060405180910390a261309433308c6136e3565b61309e3083613d65565b600560029054906101000a900473ffffffffffffffffffffffffffffffffffffffff1673ffffffffffffffffffffffffffffffffffffffff1663a9059cbb3383604001516040518363ffffffff1660e01b8152600401808373ffffffffffffffffffffffffffffffffffffffff1673ffffffffffffffffffffffffffffffffffffffff16815260200182815260200192505050602060405180830381600087803b15801561314b57600080fd5b505af115801561315f573d6000803e3d6000fd5b505050506040513d602081101561317557600080fd5b81019080805190602001909291905050506131f8576040517f08c379a00000000000000000000000000000000000000000000000000000000081526004018080602001828103825260148152602001807f444149205472616e73666572206661696c65642e00000000000000000000000081525060200191505060405180910390fd5b61323b6132168260200151836000015161354190919063ffffffff16565b3373ffffffffffffffffffffffffffffffffffffffff16613c1490919063ffffffff16565b3073ffffffffffffffffffffffffffffffffffffffff16316132688760065461354190919063ffffffff16565b1461326f57fe5b613277610dd6565b841461327f57fe5b613287610f2e565b831461328f57fe5b61329761113e565b861461329f57fe5b6000600654116132ab57fe5b60006132b561113e565b116132bc57fe5b60006132c6610dd6565b116132cd57fe5b60006132d7610f2e565b116132de57fe5b5050505050506001600560016101000a81548160ff02191690831515021790555050505050565b60075481565b6000806133376103e86133296103e5866135c990919063ffffffff16565b61364f90919063ffffffff16565b905080915050919050565b600033905090565b600073ffffffffffffffffffffffffffffffffffffffff168373ffffffffffffffffffffffffffffffffffffffff1614156133d0576040517f08c379a00000000000000000000000000000000000000000000000000000000081526004018080602001828103825260248152602001806143656024913960400191505060405180910390fd5b600073ffffffffffffffffffffffffffffffffffffffff168273ffffffffffffffffffffffffffffffffffffffff161415613456576040517f08c379a000000000000000000000000000000000000000000000000000000000815260040180806020018281038252602281526020018061410a6022913960400191505060405180910390fd5b80600160008573ffffffffffffffffffffffffffffffffffffffff1673ffffffffffffffffffffffffffffffffffffffff16815260200190815260200160002060008473ffffffffffffffffffffffffffffffffffffffff1673ffffffffffffffffffffffffffffffffffffffff168152602001908152602001600020819055508173ffffffffffffffffffffffffffffffffffffffff168373ffffffffffffffffffffffffffffffffffffffff167f8c5be1e5ebec7d5bd14f71427d1e84f3dd0314c0f7b2291e5b200ac8c7c3b925836040518082815260200191505060405180910390a3505050565b6000808284019050838110156135bf576040517f08c379a000000000000000000000000000000000000000000000000000000000815260040180806020018281038252601b8152602001807f536166654d6174683a206164646974696f6e206f766572666c6f77000000000081525060200191505060405180910390fd5b8091505092915050565b6000808314156135dc5760009050613649565b60008284029050828482816135ed57fe5b0414613644576040517f08c379a00000000000000000000000000000000000000000000000000000000081526004018080602001828103825260218152602001806142aa6021913960400191505060405180910390fd5b809150505b92915050565b600061369183836040518060400160405280601a81526020017f536166654d6174683a206469766973696f6e206279207a65726f000000000000815250613f1d565b905092915050565b60006136db83836040518060400160405280601e81526020017f536166654d6174683a207375627472616374696f6e206f766572666c6f770000815250613999565b905092915050565b600073ffffffffffffffffffffffffffffffffffffffff168373ffffffffffffffffffffffffffffffffffffffff161415613769576040517f08c379a00000000000000000000000000000000000000000000000000000000081526004018080602001828103825260258152602001806143406025913960400191505060405180910390fd5b600073ffffffffffffffffffffffffffffffffffffffff168273ffffffffffffffffffffffffffffffffffffffff1614156137ef576040517f08c379a00000000000000000000000000000000000000000000000000000000081526004018080602001828103825260238152602001806140056023913960400191505060405180910390fd5b61385a8160405180606001604052806026815260200161416a602691396000808773ffffffffffffffffffffffffffffffffffffffff1673ffffffffffffffffffffffffffffffffffffffff168152602001908152602001600020546139999092919063ffffffff16565b6000808573ffffffffffffffffffffffffffffffffffffffff1673ffffffffffffffffffffffffffffffffffffffff168152602001908152602001600020819055506138ed816000808573ffffffffffffffffffffffffffffffffffffffff1673ffffffffffffffffffffffffffffffffffffffff1681526020019081526020016000205461354190919063ffffffff16565b6000808473ffffffffffffffffffffffffffffffffffffffff1673ffffffffffffffffffffffffffffffffffffffff168152602001908152602001600020819055508173ffffffffffffffffffffffffffffffffffffffff168373ffffffffffffffffffffffffffffffffffffffff167fddf252ad1be2c89b69c2b068fc378daa952ba7f163c4a11628f55a4df523b3ef836040518082815260200191505060405180910390a3505050565b6000838311158290613a46576040517f08c379a00000000000000000000000000000000000000000000000000000000081526004018080602001828103825283818151815260200191508051906020019080838360005b83811015613a0b5780820151818401526020810190506139f0565b50505050905090810190601f168015613a385780820380516001836020036101000a031916815260200191505b509250505060405180910390fd5b5060008385039050809150509392505050565b600073ffffffffffffffffffffffffffffffffffffffff168273ffffffffffffffffffffffffffffffffffffffff161415613afc576040517f08c379a000000000000000000000000000000000000000000000000000000000815260040180806020018281038252601f8152602001807f45524332303a206d696e7420746f20746865207a65726f20616464726573730081525060200191505060405180910390fd5b613b118160025461354190919063ffffffff16565b600281905550613b68816000808573ffffffffffffffffffffffffffffffffffffffff1673ffffffffffffffffffffffffffffffffffffffff1681526020019081526020016000205461354190919063ffffffff16565b6000808473ffffffffffffffffffffffffffffffffffffffff1673ffffffffffffffffffffffffffffffffffffffff168152602001908152602001600020819055508173ffffffffffffffffffffffffffffffffffffffff16600073ffffffffffffffffffffffffffffffffffffffff167fddf252ad1be2c89b69c2b068fc378daa952ba7f163c4a11628f55a4df523b3ef836040518082815260200191505060405180910390a35050565b803073ffffffffffffffffffffffffffffffffffffffff16311015613ca1576040517f08c379a000000000000000000000000000000000000000000000000000000000815260040180806020018281038252601d8152602001807f416464726573733a20696e73756666696369656e742062616c616e636500000081525060200191505060405180910390fd5b60008273ffffffffffffffffffffffffffffffffffffffff168260405180600001905060006040518083038185875af1925050503d8060008114613d01576040519150601f19603f3d011682016040523d82523d6000602084013e613d06565b606091505b5050905080613d60576040517f08c379a000000000000000000000000000000000000000000000000000000000815260040180806020018281038252603a8152602001806141f9603a913960400191505060405180910390fd5b505050565b600073ffffffffffffffffffffffffffffffffffffffff168273ffffffffffffffffffffffffffffffffffffffff161415613deb576040517f08c379a000000000000000000000000000000000000000000000000000000000815260040180806020018281038252602181526020018061431f6021913960400191505060405180910390fd5b613e568160405180606001604052806022815260200161408a602291396000808673ffffffffffffffffffffffffffffffffffffffff1673ffffffffffffffffffffffffffffffffffffffff168152602001908152602001600020546139999092919063ffffffff16565b6000808473ffffffffffffffffffffffffffffffffffffffff1673ffffffffffffffffffffffffffffffffffffffff16815260200190815260200160002081905550613ead8160025461369990919063ffffffff16565b600281905550600073ffffffffffffffffffffffffffffffffffffffff168273ffffffffffffffffffffffffffffffffffffffff167fddf252ad1be2c89b69c2b068fc378daa952ba7f163c4a11628f55a4df523b3ef836040518082815260200191505060405180910390a35050565b60008083118290613fc9576040517f08c379a00000000000000000000000000000000000000000000000000000000081526004018080602001828103825283818151815260200191508051906020019080838360005b83811015613f8e578082015181840152602081019050613f73565b50505050905090810190601f168015613fbb5780820380516001836020036101000a031916815260200191505b509250505060405180910390fd5b506000838581613fd557fe5b049050809150509392505050565b6040518060600160405280600081526020016000815260200160008152509056fe45524332303a207472616e7366657220746f20746865207a65726f2061646472657373556e61626c6520746f2073656e6420746865206d696e696d756d207175616e74697479206f662045434c20746f20726563656976652e56616c7565206f662045434c20736f6c64206d7573742062652067726561746572207468616e207a65726f2e45524332303a206275726e20616d6f756e7420657863656564732062616c616e6365436f6e7472616374206d757374206265206c61756e6368656420746f20696e766f6b6520746869732066756e6374696f6e2e56616c7565206f662044414920736f6c64206d7573742062652067726561746572207468616e207a65726f2e45524332303a20617070726f766520746f20746865207a65726f206164647265737344414920706f6f6c2062616c616e6365206d7573742062652067726561746572207468616e207a65726f20746f206c61756e636820636f6e74726163742e45524332303a207472616e7366657220616d6f756e7420657863656564732062616c616e636544414920736f6c64206d757374206265206c657373207468616e206f7220657175616c20746f204441492062616c616e63652e556e61626c6520746f2073656e6420746865206d696e696d756d207175616e74697479206f662044414920746f20726563656976652e416464726573733a20756e61626c6520746f2073656e642076616c75652c20726563697069656e74206d6179206861766520726576657274656445434c20736f6c64206d757374206265206c657373207468616e206f7220657175616c20746f2045434c2062616c616e63652e436f6e74726163742068617320616c7265616479206265656e206c61756e636865642e5472616e73616374696f6e20646561646c696e652068617320656c61707365642e536166654d6174683a206d756c7469706c69636174696f6e206f766572666c6f7745524332303a207472616e7366657220616d6f756e74206578636565647320616c6c6f77616e636556616c7565206f66204554482073656e74206d7573742062652067726561746572207468616e207a65726f2e45524332303a206275726e2066726f6d20746865207a65726f206164647265737345524332303a207472616e736665722066726f6d20746865207a65726f206164647265737345524332303a20617070726f76652066726f6d20746865207a65726f2061646472657373556e61626c6520746f2073656e6420746865206d696e696d756d207175616e74697479206f662045544820746f20726563656976652e45524332303a2064656372656173656420616c6c6f77616e63652062656c6f77207a65726fa265627a7a7231582002e30b49e327bf6272a9d321fe30f664a350b86ac7ce8e0cdc6d8cac7c40629064736f6c634300051100324d7573742063616c6c20636f6e7374727563746f722077697468206174206c6561737420302e30322045746865722e",
  "source": "pragma solidity =0.5.17;\r\n\r\nimport \"../node_modules/openzeppelin-solidity/contracts/token/ERC20/ERC20.sol\";\r\nimport \"../node_modules/openzeppelin-solidity/contracts/token/ERC20/ERC20Detailed.sol\";\r\nimport \"../node_modules/openzeppelin-solidity/contracts/utils/ReentrancyGuard.sol\";\r\nimport \"../node_modules/openzeppelin-solidity/contracts/utils/Address.sol\";\r\n\r\n/// @title The Eclipseum ERC20 Smart Contract\r\ncontract Eclipseum is ERC20, ERC20Detailed, ReentrancyGuard {\r\n    using SafeMath for uint256;\r\n    using Address for address payable;\r\n\r\n    struct SoftSellEclAmountsToReceive {\r\n        uint256 ethFromEclPool;\r\n        uint256 ethFromDaiPool;\r\n        uint256 daiFromDaiPool;\r\n    }\r\n\r\n    IERC20 public daiInterface;\r\n    bool public launched;\r\n    uint256 public ethBalanceOfEclPool;\r\n    uint256 public ethVolumeOfEclPool;\r\n    uint256 public ethVolumeOfDaiPool;\r\n\r\n    event LogBuyEcl(\r\n        address indexed userAddress,\r\n        uint256 ethSpent,\r\n        uint256 eclReceived\r\n    );\r\n    event LogSellEcl(\r\n        address indexed userAddress,\r\n        uint256 eclSold,\r\n        uint256 ethReceived\r\n    );\r\n    event LogSoftSellEcl(\r\n        address indexed userAddress,\r\n        uint256 eclSold,\r\n        uint256 ethReceived,\r\n        uint256 daiReceived\r\n    );\r\n    event LogBuyDai(\r\n        address indexed userAddress,\r\n        uint256 ethSpent,\r\n        uint256 daiReceived\r\n    );\r\n    event LogSellDai(\r\n        address indexed userAddress,\r\n        uint256 daiSold,\r\n        uint256 ethReceived\r\n    );\r\n\r\n    modifier requireLaunched() {\r\n        require(launched, \"Contract must be launched to invoke this function.\");\r\n        _;\r\n    }\r\n\r\n    /// @notice Must be called with at least 0.02 ETH.\r\n    /// @notice Mints 100,000 ECL into the contract account\r\n    constructor(address _daiAddress)\r\n        public\r\n        payable\r\n        ERC20Detailed(\"Eclipseum\", \"ECL\", 18)\r\n    {\r\n        require(\r\n            msg.value >= 0.02 ether,\r\n            \"Must call constructor with at least 0.02 Ether.\"\r\n        );\r\n\r\n        _mint(address(this), 1e5 * (10**18));\r\n        daiInterface = IERC20(_daiAddress);\r\n    }\r\n\r\n    /// @notice This function is called once after deployment to launch the contract.\r\n    /// @notice Some amount of DAI must be transferred to the contract for launch to succeed.\r\n    /// @notice Once launched, the transaction functions may be invoked.\r\n    function launch() external {\r\n        require(!launched, \"Contract has already been launched.\");\r\n        require(\r\n            daiInterface.balanceOf(address(this)) > 0,\r\n            \"DAI pool balance must be greater than zero to launch contract.\"\r\n        );\r\n\r\n        ethBalanceOfEclPool = 0.01 ether;\r\n        launched = true;\r\n    }\r\n\r\n    /// @notice Enables a user to buy ECL with ETH from the ECL liquidity pool.\r\n    /// @param minEclToReceive The minimum amount of ECL the user is willing to receive.\r\n    /// @param deadline Epoch time deadline that the transaction must complete before, otherwise reverts.\r\n    function buyEcl(uint256 minEclToReceive, uint256 deadline)\r\n        external\r\n        payable\r\n        nonReentrant\r\n        requireLaunched\r\n    {\r\n        require(\r\n            deadline >= block.timestamp,\r\n            \"Transaction deadline has elapsed.\"\r\n        );\r\n        require(msg.value > 0, \"Value of ETH sent must be greater than zero.\");\r\n\r\n        uint256 ethBalanceOfDaiPoolLocal = ethBalanceOfDaiPool().sub(msg.value);\r\n        uint256 eclBalanceOfEclPoolLocal = eclBalanceOfEclPool();\r\n        uint256 eclToReceive = applyTransactionFee(\r\n            calcBOut(ethBalanceOfEclPool, eclBalanceOfEclPoolLocal, msg.value)\r\n        );\r\n        uint256 eclToMint = eclToReceive.mul(7).div(6).add(1);\r\n        uint256 ethTransferToDaiPool = calcEthTransferForBuyEcl(\r\n            ethBalanceOfEclPool,\r\n            ethBalanceOfDaiPoolLocal,\r\n            msg.value\r\n        );\r\n\r\n        require(\r\n            eclToReceive >= minEclToReceive,\r\n            \"Unable to send the minimum quantity of ECL to receive.\"\r\n        );\r\n\r\n        ethBalanceOfEclPool = ethBalanceOfEclPool.add(msg.value).sub(\r\n            ethTransferToDaiPool\r\n        );\r\n        ethBalanceOfDaiPoolLocal = ethBalanceOfDaiPoolLocal.add(\r\n            ethTransferToDaiPool\r\n        );\r\n        eclBalanceOfEclPoolLocal = eclBalanceOfEclPoolLocal\r\n            .sub(eclToReceive)\r\n            .add(eclToMint);\r\n        ethVolumeOfEclPool += msg.value;\r\n\r\n        emit LogBuyEcl(msg.sender, msg.value, eclToReceive);\r\n\r\n        _transfer(address(this), msg.sender, eclToReceive);\r\n        _mint(address(this), eclToMint);\r\n\r\n        assert(ethBalanceOfDaiPoolLocal == ethBalanceOfDaiPool());\r\n        assert(eclBalanceOfEclPoolLocal == eclBalanceOfEclPool());\r\n        assert(ethBalanceOfEclPool > 0);\r\n        assert(ethBalanceOfDaiPool() > 0);\r\n        assert(eclBalanceOfEclPool() > 0);\r\n        assert(daiBalanceOfDaiPool() > 0);\r\n    }\r\n\r\n    /// @notice Enables a user to sell ECL for ETH to the ECL liquidity pool.\r\n    /// @param eclSold The amount of ECL the user is selling.\r\n    /// @param minEthToReceive The minimum amount of ETH the user is willing to receive.\r\n    /// @param deadline Epoch time deadline that the transaction must complete before.\r\n    function sellEcl(\r\n        uint256 eclSold,\r\n        uint256 minEthToReceive,\r\n        uint256 deadline\r\n    ) external nonReentrant requireLaunched {\r\n        require(\r\n            deadline >= block.timestamp,\r\n            \"Transaction deadline has elapsed.\"\r\n        );\r\n        require(eclSold > 0, \"Value of ECL sold must be greater than zero.\");\r\n        require(\r\n            eclSold <= balanceOf(address(msg.sender)),\r\n            \"ECL sold must be less than or equal to ECL balance.\"\r\n        );\r\n\r\n        uint256 ethBalanceOfDaiPoolLocal = ethBalanceOfDaiPool();\r\n        uint256 eclBalanceOfEclPoolLocal = eclBalanceOfEclPool();\r\n        uint256 eclToBurn = eclSold.mul(7).div(6);\r\n        uint256 ethToReceive = applyTransactionFee(\r\n            calcBOut(eclBalanceOfEclPoolLocal, ethBalanceOfEclPool, eclSold)\r\n        );\r\n\r\n        require(\r\n            ethToReceive >= minEthToReceive,\r\n            \"Unable to send the minimum quantity of ETH to receive.\"\r\n        );\r\n\r\n        ethBalanceOfEclPool = ethBalanceOfEclPool.sub(ethToReceive);\r\n        eclBalanceOfEclPoolLocal = eclBalanceOfEclPoolLocal.add(eclSold).sub(\r\n            eclToBurn\r\n        );\r\n        ethVolumeOfEclPool += ethToReceive;\r\n\r\n        emit LogSellEcl(msg.sender, eclSold, ethToReceive);\r\n\r\n        _transfer(address(msg.sender), address(this), eclSold);\r\n        _burn(address(this), eclToBurn);\r\n        msg.sender.sendValue(ethToReceive);\r\n\r\n        assert(ethBalanceOfDaiPoolLocal == ethBalanceOfDaiPool());\r\n        assert(eclBalanceOfEclPoolLocal == eclBalanceOfEclPool());\r\n        assert(ethBalanceOfEclPool > 0);\r\n        assert(ethBalanceOfDaiPool() > 0);\r\n        assert(eclBalanceOfEclPool() > 0);\r\n        assert(daiBalanceOfDaiPool() > 0);\r\n    }\r\n\r\n    /// @notice Enables a user to sell ECL for ETH and DAI to the ECL liquidity pool.\r\n    /// @param eclSold The amount of ECL the user is selling.\r\n    /// @param minEthToReceive The minimum amount of ETH the user is willing to receive.\r\n    /// @param minDaiToReceive The minimum amount of DAI the user is willing to receive.\r\n    /// @param deadline Epoch time deadline that the transaction must complete before.\r\n    function softSellEcl(\r\n        uint256 eclSold,\r\n        uint256 minEthToReceive,\r\n        uint256 minDaiToReceive,\r\n        uint256 deadline\r\n    ) external nonReentrant requireLaunched {\r\n        require(\r\n            deadline >= block.timestamp,\r\n            \"Transaction deadline has elapsed.\"\r\n        );\r\n        require(eclSold > 0, \"Value of ECL sold must be greater than zero.\");\r\n        require(\r\n            eclSold <= balanceOf(address(msg.sender)),\r\n            \"ECL sold must be less than or equal to ECL balance.\"\r\n        );\r\n\r\n        uint256 ethBalanceOfDaiPoolLocal = ethBalanceOfDaiPool();\r\n        uint256 circulatingSupplyLocal = circulatingSupply();\r\n        uint256 eclBalanceOfEclPoolLocal = eclBalanceOfEclPool();\r\n        uint256 daiBalanceOfDaiPoolLocal = daiBalanceOfDaiPool();\r\n        uint256 eclToBurn = applyTransactionFee(\r\n            eclSold.mul(eclBalanceOfEclPoolLocal).div(circulatingSupplyLocal)\r\n        )\r\n            .add(eclSold);\r\n        SoftSellEclAmountsToReceive memory amountsToReceive;\r\n        amountsToReceive.ethFromEclPool = applyTransactionFee(\r\n            eclSold.mul(ethBalanceOfEclPool).div(circulatingSupplyLocal)\r\n        );\r\n        amountsToReceive.ethFromDaiPool = applyTransactionFee(\r\n            eclSold.mul(ethBalanceOfDaiPoolLocal).div(circulatingSupplyLocal)\r\n        );\r\n        amountsToReceive.daiFromDaiPool = applyTransactionFee(\r\n            eclSold.mul(daiBalanceOfDaiPoolLocal).div(circulatingSupplyLocal)\r\n        );\r\n\r\n        require(\r\n            amountsToReceive.ethFromEclPool.add(\r\n                amountsToReceive.ethFromDaiPool\r\n            ) >= minEthToReceive,\r\n            \"Unable to send the minimum quantity of ETH to receive.\"\r\n        );\r\n        require(\r\n            amountsToReceive.daiFromDaiPool >= minDaiToReceive,\r\n            \"Unable to send the minimum quantity of DAI to receive.\"\r\n        );\r\n\r\n        ethBalanceOfEclPool = ethBalanceOfEclPool.sub(\r\n            amountsToReceive.ethFromEclPool\r\n        );\r\n        ethBalanceOfDaiPoolLocal = ethBalanceOfDaiPoolLocal.sub(\r\n            amountsToReceive.ethFromDaiPool\r\n        );\r\n        daiBalanceOfDaiPoolLocal = daiBalanceOfDaiPoolLocal.sub(\r\n            amountsToReceive.daiFromDaiPool\r\n        );\r\n        eclBalanceOfEclPoolLocal = eclBalanceOfEclPoolLocal.add(eclSold).sub(\r\n            eclToBurn\r\n        );\r\n        ethVolumeOfEclPool += amountsToReceive.ethFromEclPool;\r\n        ethVolumeOfDaiPool += amountsToReceive.ethFromDaiPool;\r\n\r\n        emit LogSoftSellEcl(\r\n            msg.sender,\r\n            eclSold,\r\n            amountsToReceive.ethFromEclPool.add(\r\n                amountsToReceive.ethFromDaiPool\r\n            ),\r\n            amountsToReceive.daiFromDaiPool\r\n        );\r\n\r\n        _transfer(address(msg.sender), address(this), eclSold);\r\n        _burn(address(this), eclToBurn);\r\n        require(\r\n            daiInterface.transfer(msg.sender, amountsToReceive.daiFromDaiPool),\r\n            \"DAI Transfer failed.\"\r\n        );\r\n        msg.sender.sendValue(\r\n            amountsToReceive.ethFromEclPool.add(amountsToReceive.ethFromDaiPool)\r\n        );\r\n\r\n        assert(\r\n            ethBalanceOfEclPool.add(ethBalanceOfDaiPoolLocal) ==\r\n                address(this).balance\r\n        );\r\n        assert(eclBalanceOfEclPoolLocal == eclBalanceOfEclPool());\r\n        assert(daiBalanceOfDaiPoolLocal == daiBalanceOfDaiPool());\r\n        assert(ethBalanceOfDaiPoolLocal == ethBalanceOfDaiPool());\r\n        assert(ethBalanceOfEclPool > 0);\r\n        assert(ethBalanceOfDaiPool() > 0);\r\n        assert(eclBalanceOfEclPool() > 0);\r\n        assert(daiBalanceOfDaiPool() > 0);\r\n    }\r\n\r\n    /// @notice Enables a user to buy DAI with ETH from the DAI liquidity pool.\r\n    /// @param minDaiToReceive The minimum amount of DAI the user is willing to receive.\r\n    /// @param deadline Epoch time deadline that the transaction must complete before.\r\n    function buyDai(uint256 minDaiToReceive, uint256 deadline)\r\n        external\r\n        payable\r\n        nonReentrant\r\n        requireLaunched\r\n    {\r\n        require(\r\n            deadline >= block.timestamp,\r\n            \"Transaction deadline has elapsed.\"\r\n        );\r\n        require(msg.value > 0, \"Value of ETH sent must be greater than zero.\");\r\n\r\n        uint256 ethBalanceOfDaiPoolLocal = ethBalanceOfDaiPool().sub(msg.value);\r\n        uint256 daiBalanceOfDaiPoolLocal = daiBalanceOfDaiPool();\r\n        uint256 daiToReceive = applyTransactionFee(\r\n            calcBOut(\r\n                ethBalanceOfDaiPoolLocal,\r\n                daiBalanceOfDaiPoolLocal,\r\n                msg.value\r\n            )\r\n        );\r\n        uint256 ethTransferToEclPool = msg.value.mul(15).div(10000);\r\n\r\n        require(\r\n            daiToReceive >= minDaiToReceive,\r\n            \"Unable to send the minimum quantity of DAI to receive.\"\r\n        );\r\n\r\n        ethBalanceOfEclPool = ethBalanceOfEclPool.add(ethTransferToEclPool);\r\n        ethBalanceOfDaiPoolLocal = ethBalanceOfDaiPoolLocal.add(msg.value).sub(\r\n            ethTransferToEclPool\r\n        );\r\n        daiBalanceOfDaiPoolLocal = daiBalanceOfDaiPoolLocal.sub(daiToReceive);\r\n        ethVolumeOfDaiPool += msg.value;\r\n\r\n        emit LogBuyDai(msg.sender, msg.value, daiToReceive);\r\n\r\n        require(\r\n            daiInterface.transfer(address(msg.sender), daiToReceive),\r\n            \"DAI Transfer failed.\"\r\n        );\r\n\r\n        assert(ethBalanceOfDaiPoolLocal == ethBalanceOfDaiPool());\r\n        assert(daiBalanceOfDaiPoolLocal == daiBalanceOfDaiPool());\r\n        assert(ethBalanceOfEclPool > 0);\r\n        assert(ethBalanceOfDaiPool() > 0);\r\n        assert(eclBalanceOfEclPool() > 0);\r\n        assert(daiBalanceOfDaiPool() > 0);\r\n    }\r\n\r\n    /// @notice Enables a user to sell DAI for ETH to the DAI liquidity pool.\r\n    /// @param daiSold The amount of DAI the user is selling.\r\n    /// @param minEthToReceive The minimum amount of ETH the user is willing to receive.\r\n    /// @param deadline Epoch time deadline that the transaction must complete before.\r\n    function sellDai(\r\n        uint256 daiSold,\r\n        uint256 minEthToReceive,\r\n        uint256 deadline\r\n    ) external nonReentrant requireLaunched {\r\n        require(\r\n            deadline >= block.timestamp,\r\n            \"Transaction deadline has elapsed.\"\r\n        );\r\n        require(daiSold > 0, \"Value of DAI sold must be greater than zero.\");\r\n        require(\r\n            daiSold <= daiInterface.balanceOf(address(msg.sender)),\r\n            \"DAI sold must be less than or equal to DAI balance.\"\r\n        );\r\n        require(\r\n            daiSold <=\r\n                daiInterface.allowance(address(msg.sender), address(this)),\r\n            \"DAI sold exceeds allowance.\"\r\n        );\r\n\r\n        uint256 ethBalanceOfDaiPoolLocal = ethBalanceOfDaiPool();\r\n        uint256 daiBalanceOfDaiPoolLocal = daiBalanceOfDaiPool();\r\n        uint256 ethToReceiveBeforeFee = calcBOut(\r\n            daiBalanceOfDaiPoolLocal,\r\n            ethBalanceOfDaiPoolLocal,\r\n            daiSold\r\n        );\r\n        uint256 ethToReceive = applyTransactionFee(ethToReceiveBeforeFee);\r\n        uint256 ethTransferToEclPool = ethToReceiveBeforeFee\r\n            .sub(ethToReceive)\r\n            .div(2);\r\n\r\n        require(\r\n            ethToReceive >= minEthToReceive,\r\n            \"Unable to send the minimum quantity of ETH to receive.\"\r\n        );\r\n\r\n        ethBalanceOfEclPool = ethBalanceOfEclPool.add(ethTransferToEclPool);\r\n        ethBalanceOfDaiPoolLocal = ethBalanceOfDaiPoolLocal\r\n            .sub(ethToReceive)\r\n            .sub(ethTransferToEclPool);\r\n        daiBalanceOfDaiPoolLocal = daiBalanceOfDaiPoolLocal.add(daiSold);\r\n        ethVolumeOfDaiPool += ethToReceive;\r\n\r\n        emit LogSellDai(msg.sender, daiSold, ethToReceive);\r\n\r\n        require(\r\n            daiInterface.transferFrom(\r\n                address(msg.sender),\r\n                address(this),\r\n                daiSold\r\n            ),\r\n            \"DAI Transfer failed.\"\r\n        );\r\n        msg.sender.sendValue(ethToReceive);\r\n\r\n        assert(ethBalanceOfDaiPoolLocal == ethBalanceOfDaiPool());\r\n        assert(daiBalanceOfDaiPoolLocal == daiBalanceOfDaiPool());\r\n        assert(ethBalanceOfEclPool > 0);\r\n        assert(ethBalanceOfDaiPool() > 0);\r\n        assert(eclBalanceOfEclPool() > 0);\r\n        assert(daiBalanceOfDaiPool() > 0);\r\n    }\r\n\r\n    /// @notice Calculates amount of asset B for user to receive using constant product market maker algorithm.\r\n    /// @dev A value of one is subtracted in the _bToReceive calculation such that rounding\r\n    /// @dev errors favour the pool over the user.\r\n    /// @param aBalance The balance of asset A in the liquidity pool.\r\n    /// @param bBalance The balance of asset B in the liquidity pool.\r\n    /// @param aSent The quantity of asset A sent by the user to the liquidity pool.\r\n    /// @return bToReceive The quantity of asset B the user would receive before transaction fee is applied.\r\n    function calcBOut(\r\n        uint256 aBalance,\r\n        uint256 bBalance,\r\n        uint256 aSent\r\n    ) public pure returns (uint256) {\r\n        uint256 denominator = aBalance.add(aSent);\r\n        uint256 fraction = aBalance.mul(bBalance).div(denominator);\r\n        uint256 bToReceive = bBalance.sub(fraction).sub(1);\r\n\r\n        assert(bToReceive < bBalance);\r\n\r\n        return bToReceive;\r\n    }\r\n\r\n    /// @notice Calculates the amount of ETH to transfer from the ECL pool to the DAI pool for the buyEcl function.\r\n    /// @param ethBalanceOfEclPoolLocal The balance of ETH in the ECL liquidity pool.\r\n    /// @param ethBalanceOfDaiPoolLocal The balance of ETH in the DAI liquidity pool.\r\n    /// @param ethSent The quantity of ETH sent by the user in the buyEcl function.\r\n    /// @return ethTransferToDaiPool The quantity of ETH to transfer from the ECL pool to the DAI pool.\r\n    function calcEthTransferForBuyEcl(\r\n        uint256 ethBalanceOfEclPoolLocal,\r\n        uint256 ethBalanceOfDaiPoolLocal,\r\n        uint256 ethSent\r\n    ) public pure returns (uint256) {\r\n        uint256 ethTransferToDaiPool;\r\n\r\n        if (\r\n            ethBalanceOfEclPoolLocal >=\r\n            ethSent.mul(4).div(6).add(ethBalanceOfDaiPoolLocal)\r\n        ) {\r\n            ethTransferToDaiPool = ethSent.mul(5).div(6);\r\n        } else if (\r\n            ethSent.add(ethBalanceOfEclPoolLocal) <= ethBalanceOfDaiPoolLocal\r\n        ) {\r\n            ethTransferToDaiPool = 0;\r\n        } else {\r\n            ethTransferToDaiPool = ethSent\r\n                .add(ethBalanceOfEclPoolLocal)\r\n                .sub(ethBalanceOfDaiPoolLocal)\r\n                .div(2);\r\n        }\r\n\r\n        assert(ethTransferToDaiPool <= ethSent.mul(5).div(6));\r\n\r\n        return ethTransferToDaiPool;\r\n    }\r\n\r\n    /// @notice Calculates the amount for the user to receive with a 0.3% transaction fee applied.\r\n    /// @param amountBeforeFee The amount the user will receive before transaction fee is applied.\r\n    /// @return amountAfterFee The amount the user will receive with transaction fee applied.\r\n    function applyTransactionFee(uint256 amountBeforeFee)\r\n        public\r\n        pure\r\n        returns (uint256)\r\n    {\r\n        uint256 amountAfterFee = amountBeforeFee.mul(997).div(1000);\r\n        return amountAfterFee;\r\n    }\r\n\r\n    /// @notice Returns the ECL balance of the ECL pool.\r\n    function eclBalanceOfEclPool()\r\n        public\r\n        view\r\n        requireLaunched\r\n        returns (uint256)\r\n    {\r\n        return balanceOf(address(this));\r\n    }\r\n\r\n    /// @notice Returns the ETH balance of the DAI pool.\r\n    function ethBalanceOfDaiPool()\r\n        public\r\n        view\r\n        requireLaunched\r\n        returns (uint256)\r\n    {\r\n        return address(this).balance.sub(ethBalanceOfEclPool);\r\n    }\r\n\r\n    /// @notice Returns the DAI balance of the DAI pool.\r\n    function daiBalanceOfDaiPool()\r\n        public\r\n        view\r\n        requireLaunched\r\n        returns (uint256)\r\n    {\r\n        return daiInterface.balanceOf(address(this));\r\n    }\r\n\r\n    /// @notice Returns the circulating supply of ECL.\r\n    function circulatingSupply() public view requireLaunched returns (uint256) {\r\n        return totalSupply().sub(eclBalanceOfEclPool());\r\n    }\r\n}\r\n",
  "sourcePath": "C:\\Users\\tbweb\\eclipseum-core\\contracts\\Eclipseum.sol",
  "compiler": {
    "name": "solc",
    "version": "0.5.17+commit.d19bba13.Emscripten.clang"
  },
  "schemaVersion": "3.1.0",
  "updatedAt": "2020-11-12T19:20:22.200Z",
  "devdoc": {
    "methods": {
      "allowance(address,address)": {
        "details": "See {IERC20-allowance}."
      },
      "applyTransactionFee(uint256)": {
        "params": {
          "amountBeforeFee": "The amount the user will receive before transaction fee is applied."
        },
        "return": "amountAfterFee The amount the user will receive with transaction fee applied."
      },
      "approve(address,uint256)": {
        "details": "See {IERC20-approve}.     * Requirements:     * - `spender` cannot be the zero address."
      },
      "balanceOf(address)": {
        "details": "See {IERC20-balanceOf}."
      },
      "buyDai(uint256,uint256)": {
        "params": {
          "deadline": "Epoch time deadline that the transaction must complete before.",
          "minDaiToReceive": "The minimum amount of DAI the user is willing to receive."
        }
      },
      "buyEcl(uint256,uint256)": {
        "params": {
          "deadline": "Epoch time deadline that the transaction must complete before, otherwise reverts.",
          "minEclToReceive": "The minimum amount of ECL the user is willing to receive."
        }
      },
      "calcBOut(uint256,uint256,uint256)": {
        "details": "A value of one is subtracted in the _bToReceive calculation such that roundingerrors favour the pool over the user.",
        "params": {
          "aBalance": "The balance of asset A in the liquidity pool.",
          "aSent": "The quantity of asset A sent by the user to the liquidity pool.",
          "bBalance": "The balance of asset B in the liquidity pool."
        },
        "return": "bToReceive The quantity of asset B the user would receive before transaction fee is applied."
      },
      "calcEthTransferForBuyEcl(uint256,uint256,uint256)": {
        "params": {
          "ethBalanceOfDaiPoolLocal": "The balance of ETH in the DAI liquidity pool.",
          "ethBalanceOfEclPoolLocal": "The balance of ETH in the ECL liquidity pool.",
          "ethSent": "The quantity of ETH sent by the user in the buyEcl function."
        },
        "return": "ethTransferToDaiPool The quantity of ETH to transfer from the ECL pool to the DAI pool."
      },
      "decimals()": {
        "details": "Returns the number of decimals used to get its user representation. For example, if `decimals` equals `2`, a balance of `505` tokens should be displayed to a user as `5,05` (`505 / 10 ** 2`).     * Tokens usually opt for a value of 18, imitating the relationship between Ether and Wei.     * NOTE: This information is only used for _display_ purposes: it in no way affects any of the arithmetic of the contract, including {IERC20-balanceOf} and {IERC20-transfer}."
      },
      "decreaseAllowance(address,uint256)": {
        "details": "Atomically decreases the allowance granted to `spender` by the caller.     * This is an alternative to {approve} that can be used as a mitigation for problems described in {IERC20-approve}.     * Emits an {Approval} event indicating the updated allowance.     * Requirements:     * - `spender` cannot be the zero address. - `spender` must have allowance for the caller of at least `subtractedValue`."
      },
      "increaseAllowance(address,uint256)": {
        "details": "Atomically increases the allowance granted to `spender` by the caller.     * This is an alternative to {approve} that can be used as a mitigation for problems described in {IERC20-approve}.     * Emits an {Approval} event indicating the updated allowance.     * Requirements:     * - `spender` cannot be the zero address."
      },
      "name()": {
        "details": "Returns the name of the token."
      },
      "sellDai(uint256,uint256,uint256)": {
        "params": {
          "daiSold": "The amount of DAI the user is selling.",
          "deadline": "Epoch time deadline that the transaction must complete before.",
          "minEthToReceive": "The minimum amount of ETH the user is willing to receive."
        }
      },
      "sellEcl(uint256,uint256,uint256)": {
        "params": {
          "deadline": "Epoch time deadline that the transaction must complete before.",
          "eclSold": "The amount of ECL the user is selling.",
          "minEthToReceive": "The minimum amount of ETH the user is willing to receive."
        }
      },
      "softSellEcl(uint256,uint256,uint256,uint256)": {
        "params": {
          "deadline": "Epoch time deadline that the transaction must complete before.",
          "eclSold": "The amount of ECL the user is selling.",
          "minDaiToReceive": "The minimum amount of DAI the user is willing to receive.",
          "minEthToReceive": "The minimum amount of ETH the user is willing to receive."
        }
      },
      "symbol()": {
        "details": "Returns the symbol of the token, usually a shorter version of the name."
      },
      "totalSupply()": {
        "details": "See {IERC20-totalSupply}."
      },
      "transfer(address,uint256)": {
        "details": "See {IERC20-transfer}.     * Requirements:     * - `recipient` cannot be the zero address. - the caller must have a balance of at least `amount`."
      },
      "transferFrom(address,address,uint256)": {
        "details": "See {IERC20-transferFrom}.     * Emits an {Approval} event indicating the updated allowance. This is not required by the EIP. See the note at the beginning of {ERC20};     * Requirements: - `sender` and `recipient` cannot be the zero address. - `sender` must have a balance of at least `amount`. - the caller must have allowance for `sender`'s tokens of at least `amount`."
      }
    },
    "title": "The Eclipseum ERC20 Smart Contract"
  },
  "userdoc": {
    "methods": {
      "applyTransactionFee(uint256)": {
        "notice": "Calculates the amount for the user to receive with a 0.3% transaction fee applied."
      },
      "buyDai(uint256,uint256)": {
        "notice": "Enables a user to buy DAI with ETH from the DAI liquidity pool."
      },
      "buyEcl(uint256,uint256)": {
        "notice": "Enables a user to buy ECL with ETH from the ECL liquidity pool."
      },
      "calcBOut(uint256,uint256,uint256)": {
        "notice": "Calculates amount of asset B for user to receive using constant product market maker algorithm."
      },
      "calcEthTransferForBuyEcl(uint256,uint256,uint256)": {
        "notice": "Calculates the amount of ETH to transfer from the ECL pool to the DAI pool for the buyEcl function."
      },
      "circulatingSupply()": {
        "notice": "Returns the circulating supply of ECL."
      },
      "constructor": "Must be called with at least 0.02 ETH.Mints 100,000 ECL into the contract account",
      "daiBalanceOfDaiPool()": {
        "notice": "Returns the DAI balance of the DAI pool."
      },
      "eclBalanceOfEclPool()": {
        "notice": "Returns the ECL balance of the ECL pool."
      },
      "ethBalanceOfDaiPool()": {
        "notice": "Returns the ETH balance of the DAI pool."
      },
      "launch()": {
        "notice": "This function is called once after deployment to launch the contract.Some amount of DAI must be transferred to the contract for launch to succeed.Once launched, the transaction functions may be invoked."
      },
      "sellDai(uint256,uint256,uint256)": {
        "notice": "Enables a user to sell DAI for ETH to the DAI liquidity pool."
      },
      "sellEcl(uint256,uint256,uint256)": {
        "notice": "Enables a user to sell ECL for ETH to the ECL liquidity pool."
      },
      "softSellEcl(uint256,uint256,uint256,uint256)": {
        "notice": "Enables a user to sell ECL for ETH and DAI to the ECL liquidity pool."
      }
    }
  }
}